{
  "address": "0x5FbDB2315678afecb367f032d93F642f64180aa3",
  "abi": [
    {
      "inputs": [
        {
          "internalType": "address payable",
          "name": "_gelato",
          "type": "address"
        }
      ],
      "stateMutability": "nonpayable",
      "type": "constructor"
    },
    {
      "anonymous": false,
      "inputs": [
        {
          "indexed": true,
          "internalType": "uint256",
          "name": "txFee",
          "type": "uint256"
        },
        {
          "indexed": true,
          "internalType": "address",
          "name": "feeToken",
          "type": "address"
        },
        {
          "indexed": true,
          "internalType": "address",
          "name": "execAddress",
          "type": "address"
        },
        {
          "indexed": false,
          "internalType": "bytes",
          "name": "execData",
          "type": "bytes"
        },
        {
          "indexed": false,
          "internalType": "bytes32",
          "name": "taskId",
          "type": "bytes32"
        },
        {
          "indexed": false,
          "internalType": "bool",
          "name": "callSuccess",
          "type": "bool"
        }
      ],
      "name": "ExecSuccess",
      "type": "event"
    },
    {
      "anonymous": false,
      "inputs": [
        {
          "indexed": true,
          "internalType": "address",
          "name": "sponsor",
          "type": "address"
        },
        {
          "indexed": true,
          "internalType": "address",
          "name": "target",
          "type": "address"
        },
        {
          "indexed": true,
          "internalType": "address",
          "name": "feeToken",
          "type": "address"
        },
        {
          "indexed": false,
          "internalType": "uint256",
          "name": "oneBalanceChainId",
          "type": "uint256"
        },
        {
          "indexed": false,
          "internalType": "uint256",
          "name": "nativeToFeeTokenXRateNumerator",
          "type": "uint256"
        },
        {
          "indexed": false,
          "internalType": "uint256",
          "name": "nativeToFeeTokenXRateDenominator",
          "type": "uint256"
        },
        {
          "indexed": false,
          "internalType": "bytes32",
          "name": "correlationId",
          "type": "bytes32"
        }
      ],
      "name": "LogUseGelato1Balance",
      "type": "event"
    },
    {
      "anonymous": false,
      "inputs": [
        {
          "indexed": false,
          "internalType": "bytes32",
          "name": "taskId",
          "type": "bytes32"
        },
        {
          "indexed": false,
          "internalType": "address",
          "name": "taskCreator",
          "type": "address"
        }
      ],
      "name": "TaskCancelled",
      "type": "event"
    },
    {
      "anonymous": false,
      "inputs": [
        {
          "indexed": true,
          "internalType": "address",
          "name": "taskCreator",
          "type": "address"
        },
        {
          "indexed": true,
          "internalType": "address",
          "name": "execAddress",
          "type": "address"
        },
        {
          "indexed": false,
          "internalType": "bytes",
          "name": "execDataOrSelector",
          "type": "bytes"
        },
        {
          "components": [
            {
              "internalType": "enum LibDataTypes.Module[]",
              "name": "modules",
              "type": "uint8[]"
            },
            {
              "internalType": "bytes[]",
              "name": "args",
              "type": "bytes[]"
            }
          ],
          "indexed": false,
          "internalType": "struct LibDataTypes.ModuleData",
          "name": "moduleData",
          "type": "tuple"
        },
        {
          "indexed": false,
          "internalType": "address",
          "name": "feeToken",
          "type": "address"
        },
        {
          "indexed": true,
          "internalType": "bytes32",
          "name": "taskId",
          "type": "bytes32"
        }
      ],
      "name": "TaskCreated",
      "type": "event"
    },
    {
      "inputs": [
        {
          "internalType": "bytes32",
          "name": "_taskId",
          "type": "bytes32"
        }
      ],
      "name": "cancelTask",
      "outputs": [],
      "stateMutability": "nonpayable",
      "type": "function"
    },
    {
      "inputs": [
        {
          "internalType": "address",
          "name": "_execAddress",
          "type": "address"
        },
        {
          "internalType": "bytes",
          "name": "_execDataOrSelector",
          "type": "bytes"
        },
        {
          "components": [
            {
              "internalType": "enum LibDataTypes.Module[]",
              "name": "modules",
              "type": "uint8[]"
            },
            {
              "internalType": "bytes[]",
              "name": "args",
              "type": "bytes[]"
            }
          ],
          "internalType": "struct LibDataTypes.ModuleData",
          "name": "_moduleData",
          "type": "tuple"
        },
        {
          "internalType": "address",
          "name": "_feeToken",
          "type": "address"
        }
      ],
      "name": "createTask",
      "outputs": [
        {
          "internalType": "bytes32",
          "name": "taskId",
          "type": "bytes32"
        }
      ],
      "stateMutability": "nonpayable",
      "type": "function"
    },
    {
      "inputs": [
        {
          "internalType": "address",
          "name": "_taskCreator",
          "type": "address"
        },
        {
          "internalType": "address",
          "name": "_execAddress",
          "type": "address"
        },
        {
          "internalType": "bytes",
          "name": "_execData",
          "type": "bytes"
        },
        {
          "components": [
            {
              "internalType": "enum LibDataTypes.Module[]",
              "name": "modules",
              "type": "uint8[]"
            },
            {
              "internalType": "bytes[]",
              "name": "args",
              "type": "bytes[]"
            }
          ],
          "internalType": "struct LibDataTypes.ModuleData",
          "name": "_moduleData",
          "type": "tuple"
        },
        {
          "internalType": "uint256",
          "name": "_txFee",
          "type": "uint256"
        },
        {
          "internalType": "address",
          "name": "_feeToken",
          "type": "address"
        },
        {
          "internalType": "bool",
          "name": "_revertOnFailure",
          "type": "bool"
        }
      ],
      "name": "exec",
      "outputs": [],
      "stateMutability": "nonpayable",
      "type": "function"
    },
    {
      "inputs": [
        {
          "internalType": "address",
          "name": "_taskCreator",
          "type": "address"
        },
        {
          "internalType": "address",
          "name": "_execAddress",
          "type": "address"
        },
        {
          "internalType": "bytes",
          "name": "_execData",
          "type": "bytes"
        },
        {
          "components": [
            {
              "internalType": "enum LibDataTypes.Module[]",
              "name": "modules",
              "type": "uint8[]"
            },
            {
              "internalType": "bytes[]",
              "name": "args",
              "type": "bytes[]"
            }
          ],
          "internalType": "struct LibDataTypes.ModuleData",
          "name": "_moduleData",
          "type": "tuple"
        },
        {
          "components": [
            {
              "internalType": "address",
              "name": "sponsor",
              "type": "address"
            },
            {
              "internalType": "address",
              "name": "feeToken",
              "type": "address"
            },
            {
              "internalType": "uint256",
              "name": "oneBalanceChainId",
              "type": "uint256"
            },
            {
              "internalType": "uint256",
              "name": "nativeToFeeTokenXRateNumerator",
              "type": "uint256"
            },
            {
              "internalType": "uint256",
              "name": "nativeToFeeTokenXRateDenominator",
              "type": "uint256"
            },
            {
              "internalType": "bytes32",
              "name": "correlationId",
              "type": "bytes32"
            }
          ],
          "internalType": "struct IGelato1Balance.Gelato1BalanceParam",
          "name": "_oneBalanceParam",
          "type": "tuple"
        },
        {
          "internalType": "bool",
          "name": "_revertOnFailure",
          "type": "bool"
        }
      ],
      "name": "exec1Balance",
      "outputs": [],
      "stateMutability": "nonpayable",
      "type": "function"
    },
    {
      "inputs": [
        {
          "internalType": "bytes32",
          "name": "",
          "type": "bytes32"
        }
      ],
      "name": "execAddresses",
      "outputs": [
        {
          "internalType": "address",
          "name": "",
          "type": "address"
        }
      ],
      "stateMutability": "view",
      "type": "function"
    },
    {
      "inputs": [],
      "name": "fee",
      "outputs": [
        {
          "internalType": "uint256",
          "name": "",
          "type": "uint256"
        }
      ],
      "stateMutability": "view",
      "type": "function"
    },
    {
      "inputs": [],
      "name": "feeToken",
      "outputs": [
        {
          "internalType": "address",
          "name": "",
          "type": "address"
        }
      ],
      "stateMutability": "view",
      "type": "function"
    },
    {
      "inputs": [],
      "name": "gelato",
      "outputs": [
        {
          "internalType": "address payable",
          "name": "",
          "type": "address"
        }
      ],
      "stateMutability": "view",
      "type": "function"
    },
    {
      "inputs": [],
      "name": "getFeeDetails",
      "outputs": [
        {
          "internalType": "uint256",
          "name": "",
          "type": "uint256"
        },
        {
          "internalType": "address",
          "name": "",
          "type": "address"
        }
      ],
      "stateMutability": "view",
      "type": "function"
    },
    {
      "inputs": [
        {
          "internalType": "address",
          "name": "taskCreator",
          "type": "address"
        },
        {
          "internalType": "address",
          "name": "execAddress",
          "type": "address"
        },
        {
          "internalType": "bytes4",
          "name": "execSelector",
          "type": "bytes4"
        },
        {
          "components": [
            {
              "internalType": "enum LibDataTypes.Module[]",
              "name": "modules",
              "type": "uint8[]"
            },
            {
              "internalType": "bytes[]",
              "name": "args",
              "type": "bytes[]"
            }
          ],
          "internalType": "struct LibDataTypes.ModuleData",
          "name": "moduleData",
          "type": "tuple"
        },
        {
          "internalType": "address",
          "name": "feeToken",
          "type": "address"
        }
      ],
      "name": "getTaskId",
      "outputs": [
        {
          "internalType": "bytes32",
          "name": "taskId",
          "type": "bytes32"
        }
      ],
      "stateMutability": "pure",
      "type": "function"
    },
    {
      "inputs": [
        {
          "internalType": "address",
          "name": "_taskCreator",
          "type": "address"
        }
      ],
      "name": "getTaskIdsByUser",
      "outputs": [
        {
          "internalType": "bytes32[]",
          "name": "",
          "type": "bytes32[]"
        }
      ],
      "stateMutability": "view",
      "type": "function"
    },
    {
      "inputs": [
        {
          "internalType": "bytes32",
          "name": "",
          "type": "bytes32"
        }
      ],
      "name": "nonce1Balance",
      "outputs": [
        {
          "internalType": "uint256",
          "name": "",
          "type": "uint256"
        }
      ],
      "stateMutability": "view",
      "type": "function"
    },
    {
      "inputs": [
        {
          "internalType": "enum LibDataTypes.Module[]",
          "name": "_modules",
          "type": "uint8[]"
        },
        {
          "internalType": "address[]",
          "name": "_moduleAddresses",
          "type": "address[]"
        }
      ],
      "name": "setModule",
      "outputs": [],
      "stateMutability": "nonpayable",
      "type": "function"
    },
    {
      "inputs": [
        {
          "internalType": "bytes32",
          "name": "",
          "type": "bytes32"
        }
      ],
      "name": "taskCreator",
      "outputs": [
        {
          "internalType": "address",
          "name": "",
          "type": "address"
        }
      ],
      "stateMutability": "view",
      "type": "function"
    },
    {
      "inputs": [
        {
          "internalType": "enum LibDataTypes.Module",
          "name": "",
          "type": "uint8"
        }
      ],
      "name": "taskModuleAddresses",
      "outputs": [
        {
          "internalType": "address",
          "name": "",
          "type": "address"
        }
      ],
      "stateMutability": "view",
      "type": "function"
    },
    {
      "inputs": [
        {
          "internalType": "bytes32",
          "name": "",
          "type": "bytes32"
        }
      ],
      "name": "timedTask",
      "outputs": [
        {
          "internalType": "uint128",
          "name": "nextExec",
          "type": "uint128"
        },
        {
          "internalType": "uint128",
          "name": "interval",
          "type": "uint128"
        }
      ],
      "stateMutability": "view",
      "type": "function"
    },
    {
      "inputs": [],
      "name": "version",
      "outputs": [
        {
          "internalType": "string",
          "name": "",
          "type": "string"
        }
      ],
      "stateMutability": "view",
      "type": "function"
    }
  ],
  "transactionHash": "0xfa4892ebc067d10a99d43f16aea143baa70e9bd6d89cacde92192b4101e099e8",
  "args": [
    "0x3caca7b48d0573d793d3b0279b5f0029180e83b6"
  ],
  "numDeployments": 1,
  "solcInputHash": "3e732f23068f6192d2fba984e5b4f4ff",
  "bytecode": "0x60a06040523480156200001157600080fd5b5060405162004387380380620043878339818101604052810190620000379190620000de565b808073ffffffffffffffffffffffffffffffffffffffff1660808173ffffffffffffffffffffffffffffffffffffffff1681525050505062000110565b600080fd5b600073ffffffffffffffffffffffffffffffffffffffff82169050919050565b6000620000a68262000079565b9050919050565b620000b88162000099565b8114620000c457600080fd5b50565b600081519050620000d881620000ad565b92915050565b600060208284031215620000f757620000f662000074565b5b60006200010784828501620000c7565b91505092915050565b60805161424d6200013a600039600081816104f3015281816106d70152610a85015261424d6000f3fe608060405234801561001057600080fd5b506004361061010b5760003560e01c8063813785e6116100a2578063b81cd86611610071578063b81cd866146102e1578063cd3d4fb914610312578063ddca3f4314610342578063e1d173a914610360578063ee8ca3b51461037c5761010b565b8063813785e61461025a578063abf26d5514610276578063ac21631a14610292578063b810c636146102c25761010b565b806354fd4d50116100de57806354fd4d50146101d0578063573ea575146101ee578063647846a51461020c5780636d2dd29f1461022a5761010b565b80630407145c146101105780632e6e0bd0146101405780633140576e146101705780633323b467146101a0575b600080fd5b61012a600480360381019061012591906125e3565b610398565b60405161013791906126d8565b60405180910390f35b61015a60048036038101906101559190612726565b6103ee565b6040516101679190612762565b60405180910390f35b61018a60048036038101906101859190612b7b565b610421565b6040516101979190612c21565b60405180910390f35b6101ba60048036038101906101b59190612cbb565b61043b565b6040516101c79190612c21565b60405180910390f35b6101d86104b8565b6040516101e59190612dde565b60405180910390f35b6101f66104f1565b6040516102039190612e21565b60405180910390f35b610214610515565b6040516102219190612762565b60405180910390f35b610244600480360381019061023f9190612726565b61053b565b6040516102519190612762565b60405180910390f35b610274600480360381019061026f9190612ee8565b61056e565b005b610290600480360381019061028b9190612fc0565b6106d5565b005b6102ac60048036038101906102a79190612726565b6109a5565b6040516102b991906130a0565b60405180910390f35b6102ca6109bd565b6040516102d89291906130bb565b60405180910390f35b6102fb60048036038101906102f69190612726565b6109ee565b60405161030992919061310f565b60405180910390f35b61032c60048036038101906103279190613138565b610a4a565b6040516103399190612762565b60405180910390f35b61034a610a7d565b60405161035791906130a0565b60405180910390f35b61037a60048036038101906103759190613191565b610a83565b005b61039660048036038101906103919190612726565b610d0e565b005b606060006103e3600260008573ffffffffffffffffffffffffffffffffffffffff1673ffffffffffffffffffffffffffffffffffffffff168152602001908152602001600020610d2c565b905080915050919050565b60006020528060005260406000206000915054906101000a900473ffffffffffffffffffffffffffffffffffffffff1681565b60006104308686868686610d4d565b905095945050505050565b60008061044a33886006610d89565b80985081925050506104ac818888888080601f016020809104026020016040519081016040528093929190818152602001838380828437600081840152601f19601f82011690508083019250505050505050876104a69061326b565b87610f5f565b91505095945050505050565b6040518060400160405280600181526020017f360000000000000000000000000000000000000000000000000000000000000081525081565b7f000000000000000000000000000000000000000000000000000000000000000081565b600460009054906101000a900473ffffffffffffffffffffffffffffffffffffffff1681565b60016020528060005260406000206000915054906101000a900473ffffffffffffffffffffffffffffffffffffffff1681565b6105766110dd565b73ffffffffffffffffffffffffffffffffffffffff163373ffffffffffffffffffffffffffffffffffffffff16146105e3576040517f08c379a00000000000000000000000000000000000000000000000000000000081526004016105da906132ca565b60405180910390fd5b600084849050905060005b818110156106cd57838382818110610609576106086132ea565b5b905060200201602081019061061e91906125e3565b60066000888885818110610635576106346132ea565b5b905060200201602081019061064a9190613138565b600581111561065c5761065b613319565b5b600581111561066e5761066d613319565b5b815260200190815260200160002060006101000a81548173ffffffffffffffffffffffffffffffffffffffff021916908373ffffffffffffffffffffffffffffffffffffffff16021790555080806106c590613377565b9150506105ee565b505050505050565b7f000000000000000000000000000000000000000000000000000000000000000073ffffffffffffffffffffffffffffffffffffffff163373ffffffffffffffffffffffffffffffffffffffff1614610763576040517f08c379a000000000000000000000000000000000000000000000000000000000815260040161075a9061340b565b60405180910390fd5b6000610784878761077388611106565b8761077d9061326b565b6000610d4d565b90506107d781600260008a73ffffffffffffffffffffffffffffffffffffffff1673ffffffffffffffffffffffffffffffffffffffff16815260200190815260200160002061127f90919063ffffffff16565b610816576040517f08c379a000000000000000000000000000000000000000000000000000000000815260040161080d90613477565b60405180910390fd5b60006108778289898989806000019061082f91906134a6565b80806020026020016040519081016040528093929190818152602001838360200280828437600081840152601f19601f82011690508083019250505050505050886006611296565b90508673ffffffffffffffffffffffffffffffffffffffff16600073ffffffffffffffffffffffffffffffffffffffff1660007fa458375b1282695a972870cbfbc4891a9d856b79d563d17667d171d87e0c527a8986866040516108dd9392919061356d565b60405180910390a48360200160208101906108f891906125e3565b73ffffffffffffffffffffffffffffffffffffffff168773ffffffffffffffffffffffffffffffffffffffff1685600001602081019061093891906125e3565b73ffffffffffffffffffffffffffffffffffffffff167f116bfd46451bbd23e7a5f5b7420b28e3d98d4c477f173da513aaaeac3c4baada8760400135886060013589608001358a60a0013560405161099394939291906135ab565b60405180910390a45050505050505050565b60076020528060005260406000206000915090505481565b600080600354600460009054906101000a900473ffffffffffffffffffffffffffffffffffffffff16915091509091565b60056020528060005260406000206000915090508060000160009054906101000a90046fffffffffffffffffffffffffffffffff16908060000160109054906101000a90046fffffffffffffffffffffffffffffffff16905082565b60066020528060005260406000206000915054906101000a900473ffffffffffffffffffffffffffffffffffffffff1681565b60035481565b7f000000000000000000000000000000000000000000000000000000000000000073ffffffffffffffffffffffffffffffffffffffff163373ffffffffffffffffffffffffffffffffffffffff1614610b11576040517f08c379a0000000000000000000000000000000000000000000000000000000008152600401610b089061340b565b60405180910390fd5b6000610b318888610b2189611106565b88610b2b9061326b565b87610d4d565b9050610b8481600260008b73ffffffffffffffffffffffffffffffffffffffff1673ffffffffffffffffffffffffffffffffffffffff16815260200190815260200160002061127f90919063ffffffff16565b610bc3576040517f08c379a0000000000000000000000000000000000000000000000000000000008152600401610bba90613477565b60405180910390fd5b8360038190555082600460006101000a81548173ffffffffffffffffffffffffffffffffffffffff021916908373ffffffffffffffffffffffffffffffffffffffff1602179055506000610c6c828a8a8a8a8060000190610c2491906134a6565b80806020026020016040519081016040528093929190818152602001838360200280828437600081840152601f19601f82011690508083019250505050505050886006611296565b9050600360009055600460006101000a81549073ffffffffffffffffffffffffffffffffffffffff02191690558773ffffffffffffffffffffffffffffffffffffffff168473ffffffffffffffffffffffffffffffffffffffff16867fa458375b1282695a972870cbfbc4891a9d856b79d563d17667d171d87e0c527a8a8686604051610cfb9392919061356d565b60405180910390a4505050505050505050565b6000610d1c8233600661133e565b9050610d2881836114fb565b5050565b60606000610d3c8360000161161a565b905060608190508092505050919050565b60008585858585604051602001610d68959493929190613846565b60405160208183030381529060405280519060200120905095945050505050565b60008060006001600580811115610da357610da2613319565b5b610dad91906138a0565b905060005b81811015610f4f576000816005811115610dcf57610dce613319565b5b9050610dec816005811115610de757610de6613319565b5b611676565b610df65750610f3c565b6000866000836005811115610e0e57610e0d613319565b5b6005811115610e2057610e1f613319565b5b815260200190815260200160002060009054906101000a900473ffffffffffffffffffffffffffffffffffffffff169050610e5a816116b7565b60006376474e6a60e01b8a8a604051602401610e779291906138d4565b604051602081830303815290604052907bffffffffffffffffffffffffffffffffffffffffffffffffffffffff19166020820180517bffffffffffffffffffffffffffffffffffffffffffffffffffffffff838183161783525050505090506000610f1883836040518060400160405280601881526020017f4175746f6d6174652e7072654372656174655461736b3a200000000000000000815250611729565b91505080806020019051810190610f2f9190613929565b809b50819c505050505050505b8080610f4790613377565b915050610db2565b5085859250925050935093915050565b6000610f768686610f6f87611106565b8686610d4d565b9050610fc981600260008973ffffffffffffffffffffffffffffffffffffffff1673ffffffffffffffffffffffffffffffffffffffff16815260200190815260200160002061127f90919063ffffffff16565b15611009576040517f08c379a0000000000000000000000000000000000000000000000000000000008152600401611000906139db565b60405180910390fd5b611018818787878760066117b3565b61106981600260008973ffffffffffffffffffffffffffffffffffffffff1673ffffffffffffffffffffffffffffffffffffffff16815260200190815260200160002061198490919063ffffffff16565b50808573ffffffffffffffffffffffffffffffffffffffff168773ffffffffffffffffffffffffffffffffffffffff167f73f079427211e7b93db86024054de0b3c4a076a36cf0f86d2c4bf0d112eb7f1d8787876040516110cc939291906139fb565b60405180910390a495945050505050565b60007fb53127684a568b3173ae13b9f8a6016e243e63b6e8ee1178d6a717850b5d610354905090565b600060188260038151811061111e5761111d6132ea565b5b602001015160f81c60f81b7effffffffffffffffffffffffffffffffffffffffffffffffffffffffffffff19167bffffffffffffffffffffffffffffffffffffffffffffffffffffffff1916901c601083600281518110611182576111816132ea565b5b602001015160f81c60f81b7effffffffffffffffffffffffffffffffffffffffffffffffffffffffffffff19167bffffffffffffffffffffffffffffffffffffffffffffffffffffffff1916901c6008846001815181106111e6576111e56132ea565b5b602001015160f81c60f81b7effffffffffffffffffffffffffffffffffffffffffffffffffffffffffffff19167bffffffffffffffffffffffffffffffffffffffffffffffffffffffff1916901c84600081518110611248576112476132ea565b5b602001015160f81c60f81b7effffffffffffffffffffffffffffffffffffffffffffffffffffffffffffff19161717179050919050565b600061128e836000018361199b565b905092915050565b6000806112a385846119be565b90506112b3898989898986611afb565b809750819850505061131f87878a6040516020016112d2929190613ac4565b6040516020818303038152906040526000876040518060400160405280600f81526020017f4175746f6d6174652e657865633a200000000000000000000000000000000000815250611c6e565b5080925050611332898989898986611d08565b50979650505050505050565b60008060058081111561135457611353613319565b5b905060005b8181116114ef57600081600581111561137557611374613319565b5b905061139281600581111561138d5761138c613319565b5b611e4e565b61139c57506114dc565b60008560008360058111156113b4576113b3613319565b5b60058111156113c6576113c5613319565b5b815260200190815260200160002060009054906101000a900473ffffffffffffffffffffffffffffffffffffffff169050611400816116b7565b60006314ae992660e01b898960405160240161141d929190613aec565b604051602081830303815290604052907bffffffffffffffffffffffffffffffffffffffffffffffffffffffff19166020820180517bffffffffffffffffffffffffffffffffffffffffffffffffffffffff8381831617835250505050905060006114be83836040518060400160405280601881526020017f4175746f6d6174652e70726543616e63656c5461736b3a200000000000000000815250611729565b915050808060200190518101906114d59190613b15565b9850505050505b80806114e790613377565b915050611359565b50839150509392505050565b61154c81600260008573ffffffffffffffffffffffffffffffffffffffff1673ffffffffffffffffffffffffffffffffffffffff16815260200190815260200160002061127f90919063ffffffff16565b61158b576040517f08c379a000000000000000000000000000000000000000000000000000000000815260040161158290613bb4565b60405180910390fd5b6115dc81600260008573ffffffffffffffffffffffffffffffffffffffff1673ffffffffffffffffffffffffffffffffffffffff168152602001908152602001600020611e8f90919063ffffffff16565b507f44d83729a43f9c6046446df014d073dd242e0ad672071e9b292f31b669c25b09818360405161160e929190613aec565b60405180910390a15050565b60608160000180548060200260200160405190810160405280929190818152602001828054801561166a57602002820191906000526020600020905b815481526020019060010190808311611656575b50505050509050919050565b60006002600581111561168c5761168b613319565b5b82600581111561169f5761169e613319565b5b036116ad57600190506116b2565b600090505b919050565b600073ffffffffffffffffffffffffffffffffffffffff168173ffffffffffffffffffffffffffffffffffffffff1603611726576040517f08c379a000000000000000000000000000000000000000000000000000000000815260040161171d90613c46565b60405180910390fd5b50565b600060608473ffffffffffffffffffffffffffffffffffffffff16846040516117529190613c66565b600060405180830381855af49150503d806000811461178d576040519150601f19603f3d011682016040523d82523d6000602084013e611792565b606091505b508092508193505050816117ab576117aa8184611ea6565b5b935093915050565b600082600001515190506117ca836000015161200d565b60005b8181101561197a576000846000015182815181106117ee576117ed6132ea565b5b6020026020010151905061181381600581111561180e5761180d613319565b5b61232a565b61181d5750611967565b600084600083600581111561183557611834613319565b5b600581111561184757611846613319565b5b815260200190815260200160002060009054906101000a900473ffffffffffffffffffffffffffffffffffffffff169050611881816116b7565b600063b0ccbdf060e01b8b8b8b8b8b6020015189815181106118a6576118a56132ea565b5b60200260200101516040516024016118c2959493929190613c7d565b604051602081830303815290604052907bffffffffffffffffffffffffffffffffffffffffffffffffffffffff19166020820180517bffffffffffffffffffffffffffffffffffffffffffffffffffffffff8381831617835250505050905061196182826040518060400160405280601781526020017f4175746f6d6174652e6f6e4372656174655461736b3a20000000000000000000815250611729565b50505050505b808061197290613377565b9150506117cd565b5050505050505050565b6000611993836000018361236b565b905092915050565b600080836001016000848152602001908152602001600020541415905092915050565b606060008351905060008167ffffffffffffffff8111156119e2576119e16127eb565b5b604051908082528060200260200182016040528015611a105781602001602082028036833780820191505090505b50905060005b82811015611aef57846000878381518110611a3457611a336132ea565b5b60200260200101516005811115611a4e57611a4d613319565b5b6005811115611a6057611a5f613319565b5b815260200190815260200160002060009054906101000a900473ffffffffffffffffffffffffffffffffffffffff16828281518110611aa257611aa16132ea565b5b602002602001019073ffffffffffffffffffffffffffffffffffffffff16908173ffffffffffffffffffffffffffffffffffffffff16815250508080611ae790613377565b915050611a16565b50809250505092915050565b6000606060008451905060005b81811015611c5b57611b45868281518110611b2657611b256132ea565b5b60200260200101516005811115611b4057611b3f613319565b5b6123db565b15611c4857600063c10304f760e01b8b8b8b8b604051602401611b6b9493929190613cde565b604051602081830303815290604052907bffffffffffffffffffffffffffffffffffffffffffffffffffffffff19166020820180517bffffffffffffffffffffffffffffffffffffffffffffffffffffffff838183161783525050505090506000611c26878481518110611be257611be16132ea565b5b6020026020010151836040518060400160405280601681526020017f4175746f6d6174652e7072654578656343616c6c3a2000000000000000000000815250611729565b91505080806020019051810190611c3d9190613d9a565b809a50819b50505050505b8080611c5390613377565b915050611b08565b5086869250925050965096945050505050565b600060608673ffffffffffffffffffffffffffffffffffffffff168587604051611c989190613c66565b60006040518083038185875af1925050503d8060008114611cd5576040519150601f19603f3d011682016040523d82523d6000602084013e611cda565b606091505b50809250819350505081158015611cee5750835b15611cfe57611cfd8184611ea6565b5b9550959350505050565b60008151905060005b81811015611e4457611d4e848281518110611d2f57611d2e6132ea565b5b60200260200101516005811115611d4957611d48613319565b5b61241c565b15611e3157600063b2db0b4160e01b89898989604051602401611d749493929190613cde565b604051602081830303815290604052907bffffffffffffffffffffffffffffffffffffffffffffffffffffffff19166020820180517bffffffffffffffffffffffffffffffffffffffffffffffffffffffff83818316178352505050509050611e2d848381518110611de957611de86132ea565b5b6020026020010151826040518060400160405280601781526020017f4175746f6d6174652e706f73744578656343616c6c3a20000000000000000000815250611729565b5050505b8080611e3c90613377565b915050611d11565b5050505050505050565b600060026005811115611e6457611e63613319565b5b826005811115611e7757611e76613319565b5b03611e855760019050611e8a565b600090505b919050565b6000611e9e836000018361245d565b905092915050565b600460208351611eb69190613e25565b03611fb1576000826020015190506308c379a060e01b817bffffffffffffffffffffffffffffffffffffffffffffffffffffffff191603611f55576044830192508183604051602001611f0a929190613e92565b6040516020818303038152906040526040517f08c379a0000000000000000000000000000000000000000000000000000000008152600401611f4c9190612dde565b60405180910390fd5b81604051602001611f669190613f02565b6040516020818303038152906040526040517f08c379a0000000000000000000000000000000000000000000000000000000008152600401611fa89190612dde565b60405180910390fd5b80604051602001611fc29190613f70565b6040516020818303038152906040526040517f08c379a00000000000000000000000000000000000000000000000000000000081526004016120049190612dde565b60405180910390fd5b6000815190506000600160058081111561202a57612029613319565b5b61203491906138a0565b905060008167ffffffffffffffff811115612052576120516127eb565b5b6040519080825280602002602001820160405280156120805781602001602082028036833780820191505090505b50905060005b838110156121a457600081111561213e57846001826120a59190613f92565b815181106120b6576120b56132ea565b5b602002602001015160058111156120d0576120cf613319565b5b8582815181106120e3576120e26132ea565b5b602002602001015160058111156120fd576120fc613319565b5b1161213d576040517f08c379a000000000000000000000000000000000000000000000000000000000815260040161213490614012565b60405180910390fd5b5b600182868381518110612154576121536132ea565b5b6020026020010151600581111561216e5761216d613319565b5b8151811061217f5761217e6132ea565b5b602002602001019015159081151581525050808061219c90613377565b915050612086565b5080600160058111156121ba576121b9613319565b5b815181106121cb576121ca6132ea565b5b602002602001015115612213576040517f08c379a000000000000000000000000000000000000000000000000000000000815260040161220a906140a4565b60405180910390fd5b806000600581111561222857612227613319565b5b81518110612239576122386132ea565b5b602002602001015180156122775750806004600581111561225d5761225c613319565b5b8151811061226e5761226d6132ea565b5b60200260200101515b156122b7576040517f08c379a00000000000000000000000000000000000000000000000000000000081526004016122ae90614136565b60405180910390fd5b80600260058111156122cc576122cb613319565b5b815181106122dd576122dc6132ea565b5b6020026020010151612324576040517f08c379a000000000000000000000000000000000000000000000000000000000815260040161231b906141c8565b60405180910390fd5b50505050565b6000600260058111156123405761233f613319565b5b82600581111561235357612352613319565b5b036123615760019050612366565b600090505b919050565b6000612377838361199b565b6123d05782600001829080600181540180825580915050600190039060005260206000200160009091909190915055826000018054905083600101600084815260200190815260200160002081905550600190506123d5565b600090505b92915050565b6000600260058111156123f1576123f0613319565b5b82600581111561240457612403613319565b5b036124125760019050612417565b600090505b919050565b60006003600581111561243257612431613319565b5b82600581111561244557612444613319565b5b036124535760019050612458565b600090505b919050565b6000808360010160008481526020019081526020016000205490506000811461256557600060018261248f9190613f92565b90506000600186600001805490506124a79190613f92565b90508082146125165760008660000182815481106124c8576124c76132ea565b5b90600052602060002001549050808760000184815481106124ec576124eb6132ea565b5b90600052602060002001819055508387600101600083815260200190815260200160002081905550505b8560000180548061252a576125296141e8565b5b60019003818190600052602060002001600090559055856001016000868152602001908152602001600020600090556001935050505061256b565b60009150505b92915050565b6000604051905090565b600080fd5b600080fd5b600073ffffffffffffffffffffffffffffffffffffffff82169050919050565b60006125b082612585565b9050919050565b6125c0816125a5565b81146125cb57600080fd5b50565b6000813590506125dd816125b7565b92915050565b6000602082840312156125f9576125f861257b565b5b6000612607848285016125ce565b91505092915050565b600081519050919050565b600082825260208201905092915050565b6000819050602082019050919050565b6000819050919050565b61264f8161263c565b82525050565b60006126618383612646565b60208301905092915050565b6000602082019050919050565b600061268582612610565b61268f818561261b565b935061269a8361262c565b8060005b838110156126cb5781516126b28882612655565b97506126bd8361266d565b92505060018101905061269e565b5085935050505092915050565b600060208201905081810360008301526126f2818461267a565b905092915050565b6127038161263c565b811461270e57600080fd5b50565b600081359050612720816126fa565b92915050565b60006020828403121561273c5761273b61257b565b5b600061274a84828501612711565b91505092915050565b61275c816125a5565b82525050565b60006020820190506127776000830184612753565b92915050565b60007fffffffff0000000000000000000000000000000000000000000000000000000082169050919050565b6127b28161277d565b81146127bd57600080fd5b50565b6000813590506127cf816127a9565b92915050565b600080fd5b6000601f19601f8301169050919050565b7f4e487b7100000000000000000000000000000000000000000000000000000000600052604160045260246000fd5b612823826127da565b810181811067ffffffffffffffff82111715612842576128416127eb565b5b80604052505050565b6000612855612571565b9050612861828261281a565b919050565b600080fd5b600080fd5b600067ffffffffffffffff82111561288b5761288a6127eb565b5b602082029050602081019050919050565b600080fd5b600681106128ae57600080fd5b50565b6000813590506128c0816128a1565b92915050565b60006128d96128d484612870565b61284b565b905080838252602082019050602084028301858111156128fc576128fb61289c565b5b835b81811015612925578061291188826128b1565b8452602084019350506020810190506128fe565b5050509392505050565b600082601f8301126129445761294361286b565b5b81356129548482602086016128c6565b91505092915050565b600067ffffffffffffffff821115612978576129776127eb565b5b602082029050602081019050919050565b600080fd5b600067ffffffffffffffff8211156129a9576129a86127eb565b5b6129b2826127da565b9050602081019050919050565b82818337600083830152505050565b60006129e16129dc8461298e565b61284b565b9050828152602081018484840111156129fd576129fc612989565b5b612a088482856129bf565b509392505050565b600082601f830112612a2557612a2461286b565b5b8135612a358482602086016129ce565b91505092915050565b6000612a51612a4c8461295d565b61284b565b90508083825260208201905060208402830185811115612a7457612a7361289c565b5b835b81811015612abb57803567ffffffffffffffff811115612a9957612a9861286b565b5b808601612aa68982612a10565b85526020850194505050602081019050612a76565b5050509392505050565b600082601f830112612ada57612ad961286b565b5b8135612aea848260208601612a3e565b91505092915050565b600060408284031215612b0957612b086127d5565b5b612b13604061284b565b9050600082013567ffffffffffffffff811115612b3357612b32612866565b5b612b3f8482850161292f565b600083015250602082013567ffffffffffffffff811115612b6357612b62612866565b5b612b6f84828501612ac5565b60208301525092915050565b600080600080600060a08688031215612b9757612b9661257b565b5b6000612ba5888289016125ce565b9550506020612bb6888289016125ce565b9450506040612bc7888289016127c0565b935050606086013567ffffffffffffffff811115612be857612be7612580565b5b612bf488828901612af3565b9250506080612c05888289016125ce565b9150509295509295909350565b612c1b8161263c565b82525050565b6000602082019050612c366000830184612c12565b92915050565b600080fd5b60008083601f840112612c5757612c5661286b565b5b8235905067ffffffffffffffff811115612c7457612c73612c3c565b5b602083019150836001820283011115612c9057612c8f61289c565b5b9250929050565b600080fd5b600060408284031215612cb257612cb1612c97565b5b81905092915050565b600080600080600060808688031215612cd757612cd661257b565b5b6000612ce5888289016125ce565b955050602086013567ffffffffffffffff811115612d0657612d05612580565b5b612d1288828901612c41565b9450945050604086013567ffffffffffffffff811115612d3557612d34612580565b5b612d4188828901612c9c565b9250506060612d52888289016125ce565b9150509295509295909350565b600081519050919050565b600082825260208201905092915050565b60005b83811015612d99578082015181840152602081019050612d7e565b60008484015250505050565b6000612db082612d5f565b612dba8185612d6a565b9350612dca818560208601612d7b565b612dd3816127da565b840191505092915050565b60006020820190508181036000830152612df88184612da5565b905092915050565b6000612e0b82612585565b9050919050565b612e1b81612e00565b82525050565b6000602082019050612e366000830184612e12565b92915050565b60008083601f840112612e5257612e5161286b565b5b8235905067ffffffffffffffff811115612e6f57612e6e612c3c565b5b602083019150836020820283011115612e8b57612e8a61289c565b5b9250929050565b60008083601f840112612ea857612ea761286b565b5b8235905067ffffffffffffffff811115612ec557612ec4612c3c565b5b602083019150836020820283011115612ee157612ee061289c565b5b9250929050565b60008060008060408587031215612f0257612f0161257b565b5b600085013567ffffffffffffffff811115612f2057612f1f612580565b5b612f2c87828801612e3c565b9450945050602085013567ffffffffffffffff811115612f4f57612f4e612580565b5b612f5b87828801612e92565b925092505092959194509250565b600060c08284031215612f7f57612f7e612c97565b5b81905092915050565b60008115159050919050565b612f9d81612f88565b8114612fa857600080fd5b50565b600081359050612fba81612f94565b92915050565b6000806000806000806101608789031215612fde57612fdd61257b565b5b6000612fec89828a016125ce565b9650506020612ffd89828a016125ce565b955050604087013567ffffffffffffffff81111561301e5761301d612580565b5b61302a89828a01612a10565b945050606087013567ffffffffffffffff81111561304b5761304a612580565b5b61305789828a01612c9c565b935050608061306889828a01612f69565b92505061014061307a89828a01612fab565b9150509295509295509295565b6000819050919050565b61309a81613087565b82525050565b60006020820190506130b56000830184613091565b92915050565b60006040820190506130d06000830185613091565b6130dd6020830184612753565b9392505050565b60006fffffffffffffffffffffffffffffffff82169050919050565b613109816130e4565b82525050565b60006040820190506131246000830185613100565b6131316020830184613100565b9392505050565b60006020828403121561314e5761314d61257b565b5b600061315c848285016128b1565b91505092915050565b61316e81613087565b811461317957600080fd5b50565b60008135905061318b81613165565b92915050565b600080600080600080600060e0888a0312156131b0576131af61257b565b5b60006131be8a828b016125ce565b97505060206131cf8a828b016125ce565b965050604088013567ffffffffffffffff8111156131f0576131ef612580565b5b6131fc8a828b01612a10565b955050606088013567ffffffffffffffff81111561321d5761321c612580565b5b6132298a828b01612c9c565b945050608061323a8a828b0161317c565b93505060a061324b8a828b016125ce565b92505060c061325c8a828b01612fab565b91505092959891949750929550565b60006132773683612af3565b9050919050565b7f4e4f545f415554484f52495a4544000000000000000000000000000000000000600082015250565b60006132b4600e83612d6a565b91506132bf8261327e565b602082019050919050565b600060208201905081810360008301526132e3816132a7565b9050919050565b7f4e487b7100000000000000000000000000000000000000000000000000000000600052603260045260246000fd5b7f4e487b7100000000000000000000000000000000000000000000000000000000600052602160045260246000fd5b7f4e487b7100000000000000000000000000000000000000000000000000000000600052601160045260246000fd5b600061338282613087565b91507fffffffffffffffffffffffffffffffffffffffffffffffffffffffffffffffff82036133b4576133b3613348565b5b600182019050919050565b7f47656c61746f666965643a204f6e6c792067656c61746f000000000000000000600082015250565b60006133f5601783612d6a565b9150613400826133bf565b602082019050919050565b60006020820190508181036000830152613424816133e8565b9050919050565b7f4175746f6d6174652e657865633a205461736b206e6f7420666f756e64000000600082015250565b6000613461601d83612d6a565b915061346c8261342b565b602082019050919050565b6000602082019050818103600083015261349081613454565b9050919050565b600080fd5b600080fd5b600080fd5b600080833560016020038436030381126134c3576134c2613497565b5b80840192508235915067ffffffffffffffff8211156134e5576134e461349c565b5b602083019250602082023603831315613501576135006134a1565b5b509250929050565b600081519050919050565b600082825260208201905092915050565b600061353082613509565b61353a8185613514565b935061354a818560208601612d7b565b613553816127da565b840191505092915050565b61356781612f88565b82525050565b600060608201905081810360008301526135878186613525565b90506135966020830185612c12565b6135a3604083018461355e565b949350505050565b60006080820190506135c06000830187613091565b6135cd6020830186613091565b6135da6040830185613091565b6135e76060830184612c12565b95945050505050565b6135f98161277d565b82525050565b600081519050919050565b600082825260208201905092915050565b6000819050602082019050919050565b6006811061363c5761363b613319565b5b50565b600081905061364d8261362b565b919050565b600061365d8261363f565b9050919050565b61366d81613652565b82525050565b600061367f8383613664565b60208301905092915050565b6000602082019050919050565b60006136a3826135ff565b6136ad818561360a565b93506136b88361361b565b8060005b838110156136e95781516136d08882613673565b97506136db8361368b565b9250506001810190506136bc565b5085935050505092915050565b600081519050919050565b600082825260208201905092915050565b6000819050602082019050919050565b600082825260208201905092915050565b600061373e82613509565b6137488185613722565b9350613758818560208601612d7b565b613761816127da565b840191505092915050565b60006137788383613733565b905092915050565b6000602082019050919050565b6000613798826136f6565b6137a28185613701565b9350836020820285016137b485613712565b8060005b858110156137f057848403895281516137d1858261376c565b94506137dc83613780565b925060208a019950506001810190506137b8565b50829750879550505050505092915050565b6000604083016000830151848203600086015261381f8282613698565b91505060208301518482036020860152613839828261378d565b9150508091505092915050565b600060a08201905061385b6000830188612753565b6138686020830187612753565b61387560408301866135f0565b81810360608301526138878185613802565b90506138966080830184612753565b9695505050505050565b60006138ab82613087565b91506138b683613087565b92508282019050808211156138ce576138cd613348565b5b92915050565b60006040820190506138e96000830185612753565b6138f66020830184612753565b9392505050565b61390681612e00565b811461391157600080fd5b50565b600081519050613923816138fd565b92915050565b600080604083850312156139405761393f61257b565b5b600061394e85828601613914565b925050602061395f85828601613914565b9150509250929050565b7f4175746f6d6174652e6372656174655461736b3a204475706c6963617465207460008201527f61736b0000000000000000000000000000000000000000000000000000000000602082015250565b60006139c5602383612d6a565b91506139d082613969565b604082019050919050565b600060208201905081810360008301526139f4816139b8565b9050919050565b60006060820190508181036000830152613a158186613525565b90508181036020830152613a298185613802565b9050613a386040830184612753565b949350505050565b600081905092915050565b6000613a5682613509565b613a608185613a40565b9350613a70818560208601612d7b565b80840191505092915050565b60008160601b9050919050565b6000613a9482613a7c565b9050919050565b6000613aa682613a89565b9050919050565b613abe613ab9826125a5565b613a9b565b82525050565b6000613ad08285613a4b565b9150613adc8284613aad565b6014820191508190509392505050565b6000604082019050613b016000830185612c12565b613b0e6020830184612753565b9392505050565b600060208284031215613b2b57613b2a61257b565b5b6000613b3984828501613914565b91505092915050565b7f4175746f6d6174652e63616e63656c5461736b3a205461736b206e6f7420666f60008201527f756e640000000000000000000000000000000000000000000000000000000000602082015250565b6000613b9e602383612d6a565b9150613ba982613b42565b604082019050919050565b60006020820190508181036000830152613bcd81613b91565b9050919050565b7f4175746f6d6174652e5f6d6f64756c65496e697469616c697365643a204e6f7460008201527f20696e6974000000000000000000000000000000000000000000000000000000602082015250565b6000613c30602583612d6a565b9150613c3b82613bd4565b604082019050919050565b60006020820190508181036000830152613c5f81613c23565b9050919050565b6000613c728284613a4b565b915081905092915050565b600060a082019050613c926000830188612c12565b613c9f6020830187612753565b613cac6040830186612753565b8181036060830152613cbe8185613525565b90508181036080830152613cd28184613525565b90509695505050505050565b6000608082019050613cf36000830187612c12565b613d006020830186612753565b613d0d6040830185612753565b8181036060830152613d1f8184613525565b905095945050505050565b6000613d3d613d388461298e565b61284b565b905082815260208101848484011115613d5957613d58612989565b5b613d64848285612d7b565b509392505050565b600082601f830112613d8157613d8061286b565b5b8151613d91848260208601613d2a565b91505092915050565b60008060408385031215613db157613db061257b565b5b6000613dbf85828601613914565b925050602083015167ffffffffffffffff811115613de057613ddf612580565b5b613dec85828601613d6c565b9150509250929050565b7f4e487b7100000000000000000000000000000000000000000000000000000000600052601260045260246000fd5b6000613e3082613087565b9150613e3b83613087565b925082613e4b57613e4a613df6565b5b828206905092915050565b600081905092915050565b6000613e6c82612d5f565b613e768185613e56565b9350613e86818560208601612d7b565b80840191505092915050565b6000613e9e8285613e61565b9150613eaa8284613e61565b91508190509392505050565b7f4e6f4572726f7253656c6563746f720000000000000000000000000000000000600082015250565b6000613eec600f83613e56565b9150613ef782613eb6565b600f82019050919050565b6000613f0e8284613e61565b9150613f1982613edf565b915081905092915050565b7f556e657870656374656452657475726e64617461000000000000000000000000600082015250565b6000613f5a601483613e56565b9150613f6582613f24565b601482019050919050565b6000613f7c8284613e61565b9150613f8782613f4d565b915081905092915050565b6000613f9d82613087565b9150613fa883613087565b9250828203905081811115613fc057613fbf613348565b5b92915050565b7f4175746f6d6174652e5f76616c69644d6f64756c65733a20417363206f6e6c79600082015250565b6000613ffc602083612d6a565b915061400782613fc6565b602082019050919050565b6000602082019050818103600083015261402b81613fef565b9050919050565b7f4175746f6d6174652e5f76616c69644d6f64756c65733a2054494d452069732060008201527f6465707265636174656400000000000000000000000000000000000000000000602082015250565b600061408e602a83612d6a565b915061409982614032565b604082019050919050565b600060208201905081810360008301526140bd81614081565b9050919050565b7f4175746f6d6174652e5f76616c69644d6f64756c65733a204f6e6c792052455360008201527f4f4c564552206f7220574542335f46554e4354494f4e00000000000000000000602082015250565b6000614120603683612d6a565b915061412b826140c4565b604082019050919050565b6000602082019050818103600083015261414f81614113565b9050919050565b7f4175746f6d6174652e5f76616c69644d6f64756c65733a2050524f585920697360008201527f2072657175697265640000000000000000000000000000000000000000000000602082015250565b60006141b2602983612d6a565b91506141bd82614156565b604082019050919050565b600060208201905081810360008301526141e1816141a5565b9050919050565b7f4e487b7100000000000000000000000000000000000000000000000000000000600052603160045260246000fdfea2646970667358221220561d26b8d67920c3bf6583594b9a89f9e26fb874a6cf52a8722cdabfeaa761af64736f6c63430008140033",
  "devdoc": {
    "events": {
      "ExecSuccess(uint256,address,address,bytes,bytes32,bool)": {
        "params": {
          "callSuccess": "Status of the call to execAddress.",
          "execAddress": "Address of contract that will be called by Gelato.",
          "execData": "Execution data / function selector.",
          "feeToken": "Token used to pay for the execution. ETH = 0xeeeeee...",
          "taskId": "Unique hash of the task. {See LibTaskId-getTaskId}",
          "txFee": "Fee paid to Gelato for execution"
        }
      },
      "TaskCancelled(bytes32,address)": {
        "params": {
          "taskCreator": "The address which owned the task.",
          "taskId": "Unique hash of the task. {See LibTaskId-getTaskId}"
        }
      },
      "TaskCreated(address,address,bytes,(uint8[],bytes[]),address,bytes32)": {
        "params": {
          "execAddress": "Address of contract that is called by Gelato.",
          "execDataOrSelector": "Execution data / function selector.",
          "feeToken": "Token used to pay for the execution. ETH = 0xeeeeee...",
          "moduleData": "Conditional modules used. {See LibDataTypes-ModuleData}",
          "taskCreator": "The address which created the task.",
          "taskId": "Unique hash of the task. {See LibTaskId-getTaskId}"
        }
      }
    },
    "kind": "dev",
    "methods": {
      "cancelTask(bytes32)": {
        "params": {
          "taskId": "Unique hash of the task that is being cancelled. {See LibTaskId-getTaskId}"
        }
      },
      "createTask(address,bytes,(uint8[],bytes[]),address)": {
        "params": {
          "execAddress": "Address of contract that should be called by Gelato.",
          "execData": "Execution data to be called with / function selector if execution data is yet to be determined.",
          "feeToken": "Address of token to be used as payment. Use address(0) if Gelato 1Balance is being used, 0xeeeeee... for ETH or native tokens.",
          "moduleData": "Conditional modules that will be used. {See LibDataTypes-ModuleData}"
        },
        "returns": {
          "taskId": "Unique hash of the task created."
        }
      },
      "exec(address,address,bytes,(uint8[],bytes[]),uint256,address,bool)": {
        "params": {
          "execAddress": "Address of contract that should be called by Gelato.",
          "execData": "Execution data to be called with / function selector if execution data is yet to be determined.",
          "feeToken": "Token used to pay for the execution. ETH = 0xeeeeee...",
          "moduleData": "Conditional modules that will be used. {See LibDataTypes-ModuleData}",
          "revertOnFailure": "To revert or not if call to execAddress fails. (Used for off-chain simulations)",
          "taskCreator": "The address which created the task.",
          "txFee": "Fee paid to Gelato for execution, transfered to Gelato.feeCollector()."
        }
      },
      "exec1Balance(address,address,bytes,(uint8[],bytes[]),(address,address,uint256,uint256,uint256,bytes32),bool)": {
        "params": {
          "execAddress": "Address of contract that should be called by Gelato.",
          "execData": "Execution data to be called with / function selector if execution data is yet to be determined.",
          "moduleData": "Conditional modules that will be used. {See LibDataTypes-ModuleData}",
          "oneBalanceParam": "Parameters required for fee payment with Gelato 1Balance.",
          "revertOnFailure": "To revert or not if call to execAddress fails. (Used for off-chain simulations)",
          "taskCreator": "The address which created the task."
        }
      },
      "getFeeDetails()": {
        "returns": {
          "_0": "uint256 Fee amount to be paid.",
          "_1": "address Token to be paid. (Determined and passed by taskCreator during createTask)"
        }
      },
      "getTaskId(address,address,bytes4,(uint8[],bytes[]),address)": {
        "params": {
          "execAddress": "Address of contract that will be called by Gelato.",
          "execSelector": "Signature of the function which will be called by Gelato.",
          "feeToken": "Address of token to be used as payment. Use address(0) if Gelato 1Balance is being used, 0xeeeeee... for ETH or native tokens.",
          "moduleData": "Conditional modules that will be used. {See LibDataTypes-ModuleData}",
          "taskCreator": "The address which created the task."
        }
      },
      "getTaskIdsByUser(address)": {
        "params": {
          "taskCreator": "Address of task creator to query."
        },
        "returns": {
          "_0": "bytes32[] List of taskIds created."
        }
      },
      "setModule(uint8[],address[])": {
        "params": {
          "moduleAddresses": "List of addresses for respective modules.",
          "modules": "List of modules to be set"
        }
      }
    },
    "version": 1
  },
  "userdoc": {
    "events": {
      "ExecSuccess(uint256,address,address,bytes,bytes32,bool)": {
        "notice": "Emitted when `exec` is called."
      },
      "TaskCancelled(bytes32,address)": {
        "notice": "Emitted when `cancelTask` is called."
      },
      "TaskCreated(address,address,bytes,(uint8[],bytes[]),address,bytes32)": {
        "notice": "Emitted when `createTask` is called."
      }
    },
    "kind": "user",
    "methods": {
      "cancelTask(bytes32)": {
        "notice": "Terminates a task that was created and Gelato can no longer execute it."
      },
      "createTask(address,bytes,(uint8[],bytes[]),address)": {
        "notice": "Initiates a task with conditions which Gelato will monitor and execute when conditions are met."
      },
      "exec(address,address,bytes,(uint8[],bytes[]),uint256,address,bool)": {
        "notice": "Execution API called by Gelato, using Sync Fee as fee payment method"
      },
      "exec1Balance(address,address,bytes,(uint8[],bytes[]),(address,address,uint256,uint256,uint256,bytes32),bool)": {
        "notice": "Execution API called by Gelato, using Gelato 1Balance as fee payment method."
      },
      "getFeeDetails()": {
        "notice": "Helper function to query fee and feeToken to be used for payment. (For executions which pays itself)"
      },
      "getTaskId(address,address,bytes4,(uint8[],bytes[]),address)": {
        "notice": "Helper function to compute task id with module arguments"
      },
      "getTaskIdsByUser(address)": {
        "notice": "Helper func to query all open tasks by a task creator."
      },
      "setModule(uint8[],address[])": {
        "notice": "Sets the address of task modules. Only callable by proxy admin."
      }
    },
    "notice": "Automate enables everyone to have Gelato monitor and execute transactions.ExecAddress refers to the contract that has the function which Gelato will call.Modules allow users to customise conditions and specifications when creating a task.",
    "version": 1
  },
  "storageLayout": {
    "storage": [
      {
        "astId": 2031,
        "contract": "contracts/Automate.sol:Automate",
        "label": "taskCreator",
        "offset": 0,
        "slot": "0",
        "type": "t_mapping(t_bytes32,t_address)"
      },
      {
        "astId": 2036,
        "contract": "contracts/Automate.sol:Automate",
        "label": "execAddresses",
        "offset": 0,
        "slot": "1",
        "type": "t_mapping(t_bytes32,t_address)"
      },
      {
        "astId": 2042,
        "contract": "contracts/Automate.sol:Automate",
        "label": "_createdTasks",
        "offset": 0,
        "slot": "2",
        "type": "t_mapping(t_address,t_struct(Bytes32Set)1115_storage)"
      },
      {
        "astId": 2044,
        "contract": "contracts/Automate.sol:Automate",
        "label": "fee",
        "offset": 0,
        "slot": "3",
        "type": "t_uint256"
      },
      {
        "astId": 2046,
        "contract": "contracts/Automate.sol:Automate",
        "label": "feeToken",
        "offset": 0,
        "slot": "4",
        "type": "t_address"
      },
      {
        "astId": 2052,
        "contract": "contracts/Automate.sol:Automate",
        "label": "timedTask",
        "offset": 0,
        "slot": "5",
        "type": "t_mapping(t_bytes32,t_struct(Time)5134_storage)"
      },
      {
        "astId": 2058,
        "contract": "contracts/Automate.sol:Automate",
        "label": "taskModuleAddresses",
        "offset": 0,
        "slot": "6",
        "type": "t_mapping(t_enum(Module)5119,t_address)"
      },
      {
        "astId": 2062,
        "contract": "contracts/Automate.sol:Automate",
        "label": "nonce1Balance",
        "offset": 0,
        "slot": "7",
        "type": "t_mapping(t_bytes32,t_uint256)"
      }
    ],
    "types": {
      "t_address": {
        "encoding": "inplace",
        "label": "address",
        "numberOfBytes": "20"
      },
      "t_array(t_bytes32)dyn_storage": {
        "base": "t_bytes32",
        "encoding": "dynamic_array",
        "label": "bytes32[]",
        "numberOfBytes": "32"
      },
      "t_bytes32": {
        "encoding": "inplace",
        "label": "bytes32",
        "numberOfBytes": "32"
      },
      "t_enum(Module)5119": {
        "encoding": "inplace",
        "label": "enum LibDataTypes.Module",
        "numberOfBytes": "1"
      },
      "t_mapping(t_address,t_struct(Bytes32Set)1115_storage)": {
        "encoding": "mapping",
        "key": "t_address",
        "label": "mapping(address => struct EnumerableSet.Bytes32Set)",
        "numberOfBytes": "32",
        "value": "t_struct(Bytes32Set)1115_storage"
      },
      "t_mapping(t_bytes32,t_address)": {
        "encoding": "mapping",
        "key": "t_bytes32",
        "label": "mapping(bytes32 => address)",
        "numberOfBytes": "32",
        "value": "t_address"
      },
      "t_mapping(t_bytes32,t_struct(Time)5134_storage)": {
        "encoding": "mapping",
        "key": "t_bytes32",
        "label": "mapping(bytes32 => struct LibDataTypes.Time)",
        "numberOfBytes": "32",
        "value": "t_struct(Time)5134_storage"
      },
      "t_mapping(t_bytes32,t_uint256)": {
        "encoding": "mapping",
        "key": "t_bytes32",
        "label": "mapping(bytes32 => uint256)",
        "numberOfBytes": "32",
        "value": "t_uint256"
      },
      "t_mapping(t_enum(Module)5119,t_address)": {
        "encoding": "mapping",
        "key": "t_enum(Module)5119",
        "label": "mapping(enum LibDataTypes.Module => address)",
        "numberOfBytes": "32",
        "value": "t_address"
      },
      "t_struct(Bytes32Set)1115_storage": {
        "encoding": "inplace",
        "label": "struct EnumerableSet.Bytes32Set",
        "members": [
          {
            "astId": 1114,
            "contract": "contracts/Automate.sol:Automate",
            "label": "_inner",
            "offset": 0,
            "slot": "0",
            "type": "t_struct(Set)921_storage"
          }
        ],
        "numberOfBytes": "64"
      },
      "t_struct(Set)921_storage": {
        "encoding": "inplace",
        "label": "struct EnumerableSet.Set",
        "members": [
          {
            "astId": 916,
            "contract": "contracts/Automate.sol:Automate",
            "label": "_values",
            "offset": 0,
            "slot": "0",
            "type": "t_array(t_bytes32)dyn_storage"
          },
          {
            "astId": 920,
            "contract": "contracts/Automate.sol:Automate",
            "label": "_positions",
            "offset": 0,
            "slot": "1",
            "type": "t_mapping(t_bytes32,t_uint256)"
          }
        ],
        "numberOfBytes": "64"
      },
      "t_struct(Time)5134_storage": {
        "encoding": "inplace",
        "label": "struct LibDataTypes.Time",
        "members": [
          {
            "astId": 5131,
            "contract": "contracts/Automate.sol:Automate",
            "label": "nextExec",
            "offset": 0,
            "slot": "0",
            "type": "t_uint128"
          },
          {
            "astId": 5133,
            "contract": "contracts/Automate.sol:Automate",
            "label": "interval",
            "offset": 16,
            "slot": "0",
            "type": "t_uint128"
          }
        ],
        "numberOfBytes": "32"
      },
      "t_uint128": {
        "encoding": "inplace",
        "label": "uint128",
        "numberOfBytes": "16"
      },
      "t_uint256": {
        "encoding": "inplace",
        "label": "uint256",
        "numberOfBytes": "32"
      }
    }
  }
}