{
  "address": "0x04f1A5b9BD82a5020C49975ceAd160E98d8B77Af",
  "abi": [
    {
      "inputs": [
        {
          "internalType": "contract ICounter",
          "name": "_counter",
          "type": "address"
        }
      ],
      "stateMutability": "nonpayable",
      "type": "constructor"
    },
    {
      "inputs": [],
      "name": "checker",
      "outputs": [
        {
          "internalType": "bool",
          "name": "canExec",
          "type": "bool"
        },
        {
          "internalType": "bytes",
          "name": "execPayload",
          "type": "bytes"
        }
      ],
      "stateMutability": "view",
      "type": "function"
    },
    {
      "inputs": [],
      "name": "counter",
      "outputs": [
        {
          "internalType": "contract ICounter",
          "name": "",
          "type": "address"
        }
      ],
      "stateMutability": "view",
      "type": "function"
    }
  ],
  "transactionHash": "0xdcc59246655310837309b21297475dc8b313ffa38633fe1f93ffa0ec13625c5d",
  "args": [
    "0x1bEfE2d8417e22Da2E0432560ef9B2aB68Ab75Ad"
  ],
  "numDeployments": 1,
  "solcInputHash": "3e732f23068f6192d2fba984e5b4f4ff",
  "bytecode": "0x60a060405234801561001057600080fd5b5060405161059c38038061059c833981810160405281019061003291906100e1565b8073ffffffffffffffffffffffffffffffffffffffff1660808173ffffffffffffffffffffffffffffffffffffffff16815250505061010e565b600080fd5b600073ffffffffffffffffffffffffffffffffffffffff82169050919050565b600061009c82610071565b9050919050565b60006100ae82610091565b9050919050565b6100be816100a3565b81146100c957600080fd5b50565b6000815190506100db816100b5565b92915050565b6000602082840312156100f7576100f661006c565b5b6000610105848285016100cc565b91505092915050565b60805161046e61012e60003960008181607a015260a4015261046e6000f3fe608060405234801561001057600080fd5b50600436106100365760003560e01c806361bc221a1461003b578063cf5303cf14610059575b600080fd5b610043610078565b6040516100509190610221565b60405180910390f35b61006161009c565b60405161006f9291906102e7565b60405180910390f35b7f000000000000000000000000000000000000000000000000000000000000000081565b6000606060007f000000000000000000000000000000000000000000000000000000000000000073ffffffffffffffffffffffffffffffffffffffff16631c15ff776040518163ffffffff1660e01b8152600401602060405180830381865afa15801561010d573d6000803e3d6000fd5b505050506040513d601f19601f820116820180604052508101906101319190610352565b905060b4814261014191906103ae565b1192506001604051602401610156919061041d565b6040516020818303038152906040526346d4adf260e01b6020820180517bffffffffffffffffffffffffffffffffffffffffffffffffffffffff83818316178352505050509150509091565b600073ffffffffffffffffffffffffffffffffffffffff82169050919050565b6000819050919050565b60006101e76101e26101dd846101a2565b6101c2565b6101a2565b9050919050565b60006101f9826101cc565b9050919050565b600061020b826101ee565b9050919050565b61021b81610200565b82525050565b60006020820190506102366000830184610212565b92915050565b60008115159050919050565b6102518161023c565b82525050565b600081519050919050565b600082825260208201905092915050565b60005b83811015610291578082015181840152602081019050610276565b60008484015250505050565b6000601f19601f8301169050919050565b60006102b982610257565b6102c38185610262565b93506102d3818560208601610273565b6102dc8161029d565b840191505092915050565b60006040820190506102fc6000830185610248565b818103602083015261030e81846102ae565b90509392505050565b600080fd5b6000819050919050565b61032f8161031c565b811461033a57600080fd5b50565b60008151905061034c81610326565b92915050565b60006020828403121561036857610367610317565b5b60006103768482850161033d565b91505092915050565b7f4e487b7100000000000000000000000000000000000000000000000000000000600052601160045260246000fd5b60006103b98261031c565b91506103c48361031c565b92508282039050818111156103dc576103db61037f565b5b92915050565b6000819050919050565b60006104076104026103fd846103e2565b6101c2565b61031c565b9050919050565b610417816103ec565b82525050565b6000602082019050610432600083018461040e565b9291505056fea2646970667358221220e30606a58dff0ae8c1fab2a8a55384bf06ecae37da6e233b6bc07f607608404e64736f6c63430008140033",
  "devdoc": {
    "kind": "dev",
    "methods": {},
    "version": 1
  },
  "userdoc": {
    "kind": "user",
    "methods": {},
    "version": 1
  },
  "storageLayout": {
    "storage": [],
    "types": null
  }
}