{
  "address": "0x1bEfE2d8417e22Da2E0432560ef9B2aB68Ab75Ad",
  "abi": [
    {
      "inputs": [
        {
          "internalType": "address payable",
          "name": "_automate",
          "type": "address"
        }
      ],
      "stateMutability": "nonpayable",
      "type": "constructor"
    },
    {
      "inputs": [],
      "name": "automate",
      "outputs": [
        {
          "internalType": "address",
          "name": "",
          "type": "address"
        }
      ],
      "stateMutability": "view",
      "type": "function"
    },
    {
      "inputs": [],
      "name": "checker",
      "outputs": [
        {
          "internalType": "bool",
          "name": "canExec",
          "type": "bool"
        },
        {
          "internalType": "bytes",
          "name": "execPayload",
          "type": "bytes"
        }
      ],
      "stateMutability": "view",
      "type": "function"
    },
    {
      "inputs": [],
      "name": "checkerReverts",
      "outputs": [
        {
          "internalType": "bool",
          "name": "canExec",
          "type": "bool"
        },
        {
          "internalType": "bytes",
          "name": "execPayload",
          "type": "bytes"
        }
      ],
      "stateMutability": "view",
      "type": "function"
    },
    {
      "inputs": [],
      "name": "count",
      "outputs": [
        {
          "internalType": "uint256",
          "name": "",
          "type": "uint256"
        }
      ],
      "stateMutability": "view",
      "type": "function"
    },
    {
      "inputs": [
        {
          "internalType": "uint256",
          "name": "amount",
          "type": "uint256"
        }
      ],
      "name": "increaseCount",
      "outputs": [],
      "stateMutability": "nonpayable",
      "type": "function"
    },
    {
      "inputs": [
        {
          "internalType": "uint256",
          "name": "amount",
          "type": "uint256"
        }
      ],
      "name": "increaseCountReverts",
      "outputs": [],
      "stateMutability": "nonpayable",
      "type": "function"
    },
    {
      "inputs": [],
      "name": "lastExecuted",
      "outputs": [
        {
          "internalType": "uint256",
          "name": "",
          "type": "uint256"
        }
      ],
      "stateMutability": "view",
      "type": "function"
    }
  ],
  "transactionHash": "0xded12a6214868fd430934d07aa7e836dbfd69ac7c04b03bcc7739a5f0667b198",
  "args": [
    "0xa85EffB2658CFd81e0B1AaD4f2364CdBCd89F3a1"
  ],
  "numDeployments": 1,
  "solcInputHash": "801ec4d47199013e1d77c198b43dc7ca",
  "bytecode": "0x608060405234801561001057600080fd5b5060405161088f38038061088f833981810160405281019061003291906100db565b806000806101000a81548173ffffffffffffffffffffffffffffffffffffffff021916908373ffffffffffffffffffffffffffffffffffffffff16021790555050610108565b600080fd5b600073ffffffffffffffffffffffffffffffffffffffff82169050919050565b60006100a88261007d565b9050919050565b6100b88161009d565b81146100c357600080fd5b50565b6000815190506100d5816100af565b92915050565b6000602082840312156100f1576100f0610078565b5b60006100ff848285016100c6565b91505092915050565b610778806101176000396000f3fe608060405234801561001057600080fd5b506004361061007d5760003560e01c80632b5a7e8d1161005b5780632b5a7e8d146100dc5780633d1cf717146100f857806346d4adf214610117578063cf5303cf146101335761007d565b8063049aacfe1461008257806306661abd146100a05780631c15ff77146100be575b600080fd5b61008a610152565b60405161009791906103b4565b60405180910390f35b6100a8610176565b6040516100b591906103e8565b60405180910390f35b6100c661017c565b6040516100d391906103e8565b60405180910390f35b6100f660048036038101906100f19190610434565b610182565b005b6101006101e6565b60405161010e92919061050c565b60405180910390f35b610131600480360381019061012c9190610434565b610273565b005b61013b6102e6565b60405161014992919061050c565b60405180910390f35b60008054906101000a900473ffffffffffffffffffffffffffffffffffffffff1681565b60015481565b60025481565b60006101c3576040517f08c379a00000000000000000000000000000000000000000000000000000000081526004016101ba90610599565b60405180910390fd5b80600160008282546101d591906105e8565b925050819055504260028190555050565b6000606060b4600254426101fa919061061c565b1191503073ffffffffffffffffffffffffffffffffffffffff16632b5a7e8d600160405160240161022b9190610695565b604051602081830303815290604052915060e01b6020820180517bffffffffffffffffffffffffffffffffffffffffffffffffffffffff838183161783525050505090509091565b60b460025442610283919061061c565b116102c3576040517f08c379a00000000000000000000000000000000000000000000000000000000081526004016102ba90610722565b60405180910390fd5b80600160008282546102d591906105e8565b925050819055504260028190555050565b6000606060b4600254426102fa919061061c565b1191503073ffffffffffffffffffffffffffffffffffffffff166346d4adf2600160405160240161032b9190610695565b604051602081830303815290604052915060e01b6020820180517bffffffffffffffffffffffffffffffffffffffffffffffffffffffff838183161783525050505090509091565b600073ffffffffffffffffffffffffffffffffffffffff82169050919050565b600061039e82610373565b9050919050565b6103ae81610393565b82525050565b60006020820190506103c960008301846103a5565b92915050565b6000819050919050565b6103e2816103cf565b82525050565b60006020820190506103fd60008301846103d9565b92915050565b600080fd5b610411816103cf565b811461041c57600080fd5b50565b60008135905061042e81610408565b92915050565b60006020828403121561044a57610449610403565b5b60006104588482850161041f565b91505092915050565b60008115159050919050565b61047681610461565b82525050565b600081519050919050565b600082825260208201905092915050565b60005b838110156104b657808201518184015260208101905061049b565b60008484015250505050565b6000601f19601f8301169050919050565b60006104de8261047c565b6104e88185610487565b93506104f8818560208601610498565b610501816104c2565b840191505092915050565b6000604082019050610521600083018561046d565b818103602083015261053381846104d3565b90509392505050565b600082825260208201905092915050565b7f436f756e7465723a207265766572747300000000000000000000000000000000600082015250565b600061058360108361053c565b915061058e8261054d565b602082019050919050565b600060208201905081810360008301526105b281610576565b9050919050565b7f4e487b7100000000000000000000000000000000000000000000000000000000600052601160045260246000fd5b60006105f3826103cf565b91506105fe836103cf565b9250828201905080821115610616576106156105b9565b5b92915050565b6000610627826103cf565b9150610632836103cf565b925082820390508181111561064a576106496105b9565b5b92915050565b6000819050919050565b6000819050919050565b600061067f61067a61067584610650565b61065a565b6103cf565b9050919050565b61068f81610664565b82525050565b60006020820190506106aa6000830184610686565b92915050565b7f436f756e7465723a20696e637265617365436f756e743a2054696d65206e6f7460008201527f20656c6170736564000000000000000000000000000000000000000000000000602082015250565b600061070c60288361053c565b9150610717826106b0565b604082019050919050565b6000602082019050818103600083015261073b816106ff565b905091905056fea26469706673582212204078c45bf3fa23165e8b442d4fbc0062db1f07f93817a1978a2690e8dbbb9af764736f6c63430008140033",
  "devdoc": {
    "kind": "dev",
    "methods": {},
    "version": 1
  },
  "userdoc": {
    "kind": "user",
    "methods": {},
    "version": 1
  },
  "storageLayout": {
    "storage": [
      {
        "astId": 903,
        "contract": "contracts/test/CounterTest.sol:CounterTest",
        "label": "automate",
        "offset": 0,
        "slot": "0",
        "type": "t_address"
      },
      {
        "astId": 905,
        "contract": "contracts/test/CounterTest.sol:CounterTest",
        "label": "count",
        "offset": 0,
        "slot": "1",
        "type": "t_uint256"
      },
      {
        "astId": 907,
        "contract": "contracts/test/CounterTest.sol:CounterTest",
        "label": "lastExecuted",
        "offset": 0,
        "slot": "2",
        "type": "t_uint256"
      }
    ],
    "types": {
      "t_address": {
        "encoding": "inplace",
        "label": "address",
        "numberOfBytes": "20"
      },
      "t_uint256": {
        "encoding": "inplace",
        "label": "uint256",
        "numberOfBytes": "32"
      }
    }
  }
}