{
  "address": "0x6484EB0792c646A4827638Fc1B6F20461418eB00",
  "abi": [
    {
      "inputs": [
        {
          "internalType": "contract IOpsProxyFactory",
          "name": "_opsProxyFactory",
          "type": "address"
        }
      ],
      "stateMutability": "nonpayable",
      "type": "constructor"
    },
    {
      "inputs": [
        {
          "internalType": "bytes32",
          "name": "",
          "type": "bytes32"
        }
      ],
      "name": "execAddresses",
      "outputs": [
        {
          "internalType": "address",
          "name": "",
          "type": "address"
        }
      ],
      "stateMutability": "view",
      "type": "function"
    },
    {
      "inputs": [],
      "name": "fee",
      "outputs": [
        {
          "internalType": "uint256",
          "name": "",
          "type": "uint256"
        }
      ],
      "stateMutability": "view",
      "type": "function"
    },
    {
      "inputs": [],
      "name": "feeToken",
      "outputs": [
        {
          "internalType": "address",
          "name": "",
          "type": "address"
        }
      ],
      "stateMutability": "view",
      "type": "function"
    },
    {
      "inputs": [
        {
          "internalType": "bytes32",
          "name": "",
          "type": "bytes32"
        }
      ],
      "name": "nonce1Balance",
      "outputs": [
        {
          "internalType": "uint256",
          "name": "",
          "type": "uint256"
        }
      ],
      "stateMutability": "view",
      "type": "function"
    },
    {
      "inputs": [
        {
          "internalType": "bytes32",
          "name": "",
          "type": "bytes32"
        },
        {
          "internalType": "address",
          "name": "_taskCreator",
          "type": "address"
        },
        {
          "internalType": "address",
          "name": "",
          "type": "address"
        },
        {
          "internalType": "bytes",
          "name": "",
          "type": "bytes"
        },
        {
          "internalType": "bytes",
          "name": "",
          "type": "bytes"
        }
      ],
      "name": "onCreateTask",
      "outputs": [],
      "stateMutability": "nonpayable",
      "type": "function"
    },
    {
      "inputs": [],
      "name": "opsProxyFactory",
      "outputs": [
        {
          "internalType": "contract IOpsProxyFactory",
          "name": "",
          "type": "address"
        }
      ],
      "stateMutability": "view",
      "type": "function"
    },
    {
      "inputs": [
        {
          "internalType": "bytes32",
          "name": "taskId",
          "type": "bytes32"
        },
        {
          "internalType": "address",
          "name": "taskCreator",
          "type": "address"
        },
        {
          "internalType": "address",
          "name": "execAddress",
          "type": "address"
        },
        {
          "internalType": "bytes",
          "name": "execData",
          "type": "bytes"
        }
      ],
      "name": "postExecCall",
      "outputs": [],
      "stateMutability": "nonpayable",
      "type": "function"
    },
    {
      "inputs": [
        {
          "internalType": "bytes32",
          "name": "",
          "type": "bytes32"
        },
        {
          "internalType": "address",
          "name": "_taskCreator",
          "type": "address"
        }
      ],
      "name": "preCancelTask",
      "outputs": [
        {
          "internalType": "address",
          "name": "",
          "type": "address"
        }
      ],
      "stateMutability": "view",
      "type": "function"
    },
    {
      "inputs": [
        {
          "internalType": "address",
          "name": "_taskCreator",
          "type": "address"
        },
        {
          "internalType": "address",
          "name": "_execAddress",
          "type": "address"
        }
      ],
      "name": "preCreateTask",
      "outputs": [
        {
          "internalType": "address",
          "name": "",
          "type": "address"
        },
        {
          "internalType": "address",
          "name": "",
          "type": "address"
        }
      ],
      "stateMutability": "view",
      "type": "function"
    },
    {
      "inputs": [
        {
          "internalType": "bytes32",
          "name": "",
          "type": "bytes32"
        },
        {
          "internalType": "address",
          "name": "_taskCreator",
          "type": "address"
        },
        {
          "internalType": "address",
          "name": "_execAddress",
          "type": "address"
        },
        {
          "internalType": "bytes",
          "name": "_execData",
          "type": "bytes"
        }
      ],
      "name": "preExecCall",
      "outputs": [
        {
          "internalType": "address",
          "name": "",
          "type": "address"
        },
        {
          "internalType": "bytes",
          "name": "execData",
          "type": "bytes"
        }
      ],
      "stateMutability": "view",
      "type": "function"
    },
    {
      "inputs": [
        {
          "internalType": "bytes32",
          "name": "",
          "type": "bytes32"
        }
      ],
      "name": "taskCreator",
      "outputs": [
        {
          "internalType": "address",
          "name": "",
          "type": "address"
        }
      ],
      "stateMutability": "view",
      "type": "function"
    },
    {
      "inputs": [
        {
          "internalType": "enum LibDataTypes.Module",
          "name": "",
          "type": "uint8"
        }
      ],
      "name": "taskModuleAddresses",
      "outputs": [
        {
          "internalType": "address",
          "name": "",
          "type": "address"
        }
      ],
      "stateMutability": "view",
      "type": "function"
    },
    {
      "inputs": [
        {
          "internalType": "bytes32",
          "name": "",
          "type": "bytes32"
        }
      ],
      "name": "timedTask",
      "outputs": [
        {
          "internalType": "uint128",
          "name": "nextExec",
          "type": "uint128"
        },
        {
          "internalType": "uint128",
          "name": "interval",
          "type": "uint128"
        }
      ],
      "stateMutability": "view",
      "type": "function"
    }
  ],
  "transactionHash": "0xb85c2e2251fb49ba4faa220292a3c7233f7da3c700a5d1ef99241d954a862687",
  "args": [
    "0x1757a98c1333B9dc8D408b194B2279b5AFDF70Cc"
  ],
  "numDeployments": 1,
  "solcInputHash": "3e732f23068f6192d2fba984e5b4f4ff",
  "bytecode": "0x60a06040523480156200001157600080fd5b50604051620014ff380380620014ff8339818101604052810190620000379190620000f0565b8073ffffffffffffffffffffffffffffffffffffffff1660808173ffffffffffffffffffffffffffffffffffffffff16815250505062000122565b600080fd5b600073ffffffffffffffffffffffffffffffffffffffff82169050919050565b6000620000a48262000077565b9050919050565b6000620000b88262000097565b9050919050565b620000ca81620000ab565b8114620000d657600080fd5b50565b600081519050620000ea81620000bf565b92915050565b60006020828403121562000109576200010862000072565b5b60006200011984828501620000d9565b91505092915050565b6080516113906200016f600039600081816102ee01528181610463015281816105e50152818161075f0152818161078901528181610913015281816109ce0152610a6f01526113906000f3fe608060405234801561001057600080fd5b50600436106100cf5760003560e01c8063b0ccbdf01161008c578063ba1d0ff411610066578063ba1d0ff41461024c578063c10304f71461026a578063cd3d4fb91461029b578063ddca3f43146102cb576100cf565b8063b0ccbdf0146101e3578063b2db0b41146101ff578063b81cd8661461021b576100cf565b806314ae9926146100d45780632e6e0bd014610104578063647846a5146101345780636d2dd29f1461015257806376474e6a14610182578063ac21631a146101b3575b600080fd5b6100ee60048036038101906100e99190610c37565b6102e9565b6040516100fb9190610c86565b60405180910390f35b61011e60048036038101906101199190610ca1565b6103d0565b60405161012b9190610c86565b60405180910390f35b61013c610403565b6040516101499190610c86565b60405180910390f35b61016c60048036038101906101679190610ca1565b610429565b6040516101799190610c86565b60405180910390f35b61019c60048036038101906101979190610cce565b61045c565b6040516101aa929190610d0e565b60405180910390f35b6101cd60048036038101906101c89190610ca1565b6106d0565b6040516101da9190610d50565b60405180910390f35b6101fd60048036038101906101f89190610dd0565b6106e8565b005b61021960048036038101906102149190610e8c565b6106fa565b005b61023560048036038101906102309190610ca1565b610701565b604051610243929190610f3f565b60405180910390f35b61025461075d565b6040516102619190610fc7565b60405180910390f35b610284600480360381019061027f9190610e8c565b610781565b604051610292929190611072565b60405180910390f35b6102b560048036038101906102b091906110c7565b6108bf565b6040516102c29190610c86565b60405180910390f35b6102d36108f2565b6040516102e09190610d50565b60405180910390f35b6000807f000000000000000000000000000000000000000000000000000000000000000073ffffffffffffffffffffffffffffffffffffffff166314afd79e846040518263ffffffff1660e01b81526004016103459190610c86565b602060405180830381865afa158015610362573d6000803e3d6000fd5b505050506040513d601f19601f820116820180604052508101906103869190611109565b9050600073ffffffffffffffffffffffffffffffffffffffff168173ffffffffffffffffffffffffffffffffffffffff16146103c557809150506103ca565b829150505b92915050565b60006020528060005260406000206000915054906101000a900473ffffffffffffffffffffffffffffffffffffffff1681565b600460009054906101000a900473ffffffffffffffffffffffffffffffffffffffff1681565b60016020528060005260406000206000915054906101000a900473ffffffffffffffffffffffffffffffffffffffff1681565b60008060007f000000000000000000000000000000000000000000000000000000000000000073ffffffffffffffffffffffffffffffffffffffff166314afd79e856040518263ffffffff1660e01b81526004016104ba9190610c86565b602060405180830381865afa1580156104d7573d6000803e3d6000fd5b505050506040513d601f19601f820116820180604052508101906104fb9190611109565b9050600073ffffffffffffffffffffffffffffffffffffffff168173ffffffffffffffffffffffffffffffffffffffff16146105e1578073ffffffffffffffffffffffffffffffffffffffff168573ffffffffffffffffffffffffffffffffffffffff16148061059657508373ffffffffffffffffffffffffffffffffffffffff168573ffffffffffffffffffffffffffffffffffffffff16145b6105d5576040517f08c379a00000000000000000000000000000000000000000000000000000000081526004016105cc90611193565b60405180910390fd5b808492509250506106c9565b60007f000000000000000000000000000000000000000000000000000000000000000073ffffffffffffffffffffffffffffffffffffffff166314afd79e876040518263ffffffff1660e01b815260040161063c9190610c86565b602060405180830381865afa158015610659573d6000803e3d6000fd5b505050506040513d601f19601f8201168201806040525081019061067d9190611109565b9050600073ffffffffffffffffffffffffffffffffffffffff168173ffffffffffffffffffffffffffffffffffffffff16146106c05780859350935050506106c9565b85859350935050505b9250929050565b60076020528060005260406000206000915090505481565b6106f1866108f8565b50505050505050565b5050505050565b60056020528060005260406000206000915090508060000160009054906101000a90046fffffffffffffffffffffffffffffffff16908060000160109054906101000a90046fffffffffffffffffffffffffffffffff16905082565b7f000000000000000000000000000000000000000000000000000000000000000081565b6000606060007f000000000000000000000000000000000000000000000000000000000000000073ffffffffffffffffffffffffffffffffffffffff1663ded89a7c886040518263ffffffff1660e01b81526004016107e09190610c86565b6040805180830381865afa1580156107fc573d6000803e3d6000fd5b505050506040513d601f19601f8201168201806040525081019061082091906111eb565b5090508073ffffffffffffffffffffffffffffffffffffffff168673ffffffffffffffffffffffffffffffffffffffff161461086657610861868686610b11565b6108ac565b84848080601f016020809104026020016040519081016040528093929190818152602001838380828437600081840152601f19601f820116905080830192505050505050505b9150809550859250509550959350505050565b60066020528060005260406000206000915054906101000a900473ffffffffffffffffffffffffffffffffffffffff1681565b60035481565b60008073ffffffffffffffffffffffffffffffffffffffff167f000000000000000000000000000000000000000000000000000000000000000073ffffffffffffffffffffffffffffffffffffffff166314afd79e846040518263ffffffff1660e01b815260040161096a9190610c86565b602060405180830381865afa158015610987573d6000803e3d6000fd5b505050506040513d601f19601f820116820180604052508101906109ab9190611109565b73ffffffffffffffffffffffffffffffffffffffff161415905080610b0d5760007f000000000000000000000000000000000000000000000000000000000000000073ffffffffffffffffffffffffffffffffffffffff1663ded89a7c846040518263ffffffff1660e01b8152600401610a259190610c86565b6040805180830381865afa158015610a41573d6000803e3d6000fd5b505050506040513d601f19601f82011682018060405250810190610a6591906111eb565b91505080610b0b577f000000000000000000000000000000000000000000000000000000000000000073ffffffffffffffffffffffffffffffffffffffff166374912cd2846040518263ffffffff1660e01b8152600401610ac69190610c86565b6020604051808303816000875af1158015610ae5573d6000803e3d6000fd5b505050506040513d601f19601f82011682018060405250810190610b099190611269565b505b505b5050565b60606354132d7860e01b8484846000604051602401610b33949392919061131a565b604051602081830303815290604052907bffffffffffffffffffffffffffffffffffffffffffffffffffffffff19166020820180517bffffffffffffffffffffffffffffffffffffffffffffffffffffffff838183161783525050505090509392505050565b600080fd5b600080fd5b6000819050919050565b610bb681610ba3565b8114610bc157600080fd5b50565b600081359050610bd381610bad565b92915050565b600073ffffffffffffffffffffffffffffffffffffffff82169050919050565b6000610c0482610bd9565b9050919050565b610c1481610bf9565b8114610c1f57600080fd5b50565b600081359050610c3181610c0b565b92915050565b60008060408385031215610c4e57610c4d610b99565b5b6000610c5c85828601610bc4565b9250506020610c6d85828601610c22565b9150509250929050565b610c8081610bf9565b82525050565b6000602082019050610c9b6000830184610c77565b92915050565b600060208284031215610cb757610cb6610b99565b5b6000610cc584828501610bc4565b91505092915050565b60008060408385031215610ce557610ce4610b99565b5b6000610cf385828601610c22565b9250506020610d0485828601610c22565b9150509250929050565b6000604082019050610d236000830185610c77565b610d306020830184610c77565b9392505050565b6000819050919050565b610d4a81610d37565b82525050565b6000602082019050610d656000830184610d41565b92915050565b600080fd5b600080fd5b600080fd5b60008083601f840112610d9057610d8f610d6b565b5b8235905067ffffffffffffffff811115610dad57610dac610d70565b5b602083019150836001820283011115610dc957610dc8610d75565b5b9250929050565b600080600080600080600060a0888a031215610def57610dee610b99565b5b6000610dfd8a828b01610bc4565b9750506020610e0e8a828b01610c22565b9650506040610e1f8a828b01610c22565b955050606088013567ffffffffffffffff811115610e4057610e3f610b9e565b5b610e4c8a828b01610d7a565b9450945050608088013567ffffffffffffffff811115610e6f57610e6e610b9e565b5b610e7b8a828b01610d7a565b925092505092959891949750929550565b600080600080600060808688031215610ea857610ea7610b99565b5b6000610eb688828901610bc4565b9550506020610ec788828901610c22565b9450506040610ed888828901610c22565b935050606086013567ffffffffffffffff811115610ef957610ef8610b9e565b5b610f0588828901610d7a565b92509250509295509295909350565b60006fffffffffffffffffffffffffffffffff82169050919050565b610f3981610f14565b82525050565b6000604082019050610f546000830185610f30565b610f616020830184610f30565b9392505050565b6000819050919050565b6000610f8d610f88610f8384610bd9565b610f68565b610bd9565b9050919050565b6000610f9f82610f72565b9050919050565b6000610fb182610f94565b9050919050565b610fc181610fa6565b82525050565b6000602082019050610fdc6000830184610fb8565b92915050565b600081519050919050565b600082825260208201905092915050565b60005b8381101561101c578082015181840152602081019050611001565b60008484015250505050565b6000601f19601f8301169050919050565b600061104482610fe2565b61104e8185610fed565b935061105e818560208601610ffe565b61106781611028565b840191505092915050565b60006040820190506110876000830185610c77565b81810360208301526110998184611039565b90509392505050565b600681106110af57600080fd5b50565b6000813590506110c1816110a2565b92915050565b6000602082840312156110dd576110dc610b99565b5b60006110eb848285016110b2565b91505092915050565b60008151905061110381610c0b565b92915050565b60006020828403121561111f5761111e610b99565b5b600061112d848285016110f4565b91505092915050565b600082825260208201905092915050565b7f50726f78794d6f64756c653a204f6e6c79206f776e6572206f662070726f7879600082015250565b600061117d602083611136565b915061118882611147565b602082019050919050565b600060208201905081810360008301526111ac81611170565b9050919050565b60008115159050919050565b6111c8816111b3565b81146111d357600080fd5b50565b6000815190506111e5816111bf565b92915050565b6000806040838503121561120257611201610b99565b5b6000611210858286016110f4565b9250506020611221858286016111d6565b9150509250929050565b600061123682610bd9565b9050919050565b6112468161122b565b811461125157600080fd5b50565b6000815190506112638161123d565b92915050565b60006020828403121561127f5761127e610b99565b5b600061128d84828501611254565b91505092915050565b82818337600083830152505050565b60006112b18385610fed565b93506112be838584611296565b6112c783611028565b840190509392505050565b6000819050919050565b600060ff82169050919050565b60006113046112ff6112fa846112d2565b610f68565b6112dc565b9050919050565b611314816112e9565b82525050565b600060608201905061132f6000830187610c77565b81810360208301526113428185876112a5565b9050611351604083018461130b565b9594505050505056fea2646970667358221220f96930093c038a893ecd9f12d9ffc7113e9666769fbb7773cf2949073864f23e64736f6c63430008140033",
  "devdoc": {
    "kind": "dev",
    "methods": {
      "onCreateTask(bytes32,address,address,bytes,bytes)": {
        "params": {
          "execAddress": "Address of contract that should be called.",
          "execData": "Execution data to be called with / function selector if execution data is yet to be determined.",
          "initModuleArg": "Encoded arguments for module if any.",
          "taskCreator": "The address which created the task.",
          "taskId": "Unique hash of the task created."
        }
      },
      "postExecCall(bytes32,address,address,bytes)": {
        "params": {
          "execAddress": "Address of contract that should be called.",
          "execData": "Execution data to be called with / function selector if execution data is yet to be determined.",
          "taskCreator": "The address which created the task.",
          "taskId": "Unique hash of the task created."
        }
      },
      "preCancelTask(bytes32,address)": {
        "details": "Modules can override taskCreator.",
        "params": {
          "taskCreator": "The address which created the task.",
          "taskId": "Unique hash of the task created."
        },
        "returns": {
          "_0": "address Overriden or original taskCreator."
        }
      },
      "preCreateTask(address,address)": {
        "details": "_taskCreator cannot create task to other user's proxy",
        "params": {
          "execAddress": "Address of contract that should be called.",
          "taskCreator": "The address which created the task."
        },
        "returns": {
          "_0": "address Overriden or original taskCreator.",
          "_1": "address Overriden or original execAddress."
        }
      },
      "preExecCall(bytes32,address,address,bytes)": {
        "details": "_execData is encoded with proxy's `executeCall` function unless _execAddress is OpsProxy which assumes that _execData is encoded with `executeCall` or `batchExecuteCall`.",
        "params": {
          "execAddress": "Address of contract that should be called.",
          "execData": "Execution data to be called with / function selector if execution data is yet to be determined.",
          "taskCreator": "The address which created the task.",
          "taskId": "Unique hash of the task created."
        },
        "returns": {
          "_0": "address Overriden or original execution address.",
          "execData": "bytes Overriden or original execution data."
        }
      }
    },
    "version": 1
  },
  "userdoc": {
    "kind": "user",
    "methods": {
      "onCreateTask(bytes32,address,address,bytes,bytes)": {
        "notice": "Initiates task module whenever `createTask` is being called."
      },
      "postExecCall(bytes32,address,address,bytes)": {
        "notice": "Called during `exec` and after execAddress is called."
      },
      "preCancelTask(bytes32,address)": {
        "notice": "Called before taskId is removed from _createdTasks[]."
      },
      "preCreateTask(address,address)": {
        "notice": "Called before generating taskId."
      },
      "preExecCall(bytes32,address,address,bytes)": {
        "notice": "Called during `exec` and before execAddress is called."
      }
    },
    "version": 1
  },
  "storageLayout": {
    "storage": [
      {
        "astId": 2031,
        "contract": "contracts/taskModules/ProxyModule.sol:ProxyModule",
        "label": "taskCreator",
        "offset": 0,
        "slot": "0",
        "type": "t_mapping(t_bytes32,t_address)"
      },
      {
        "astId": 2036,
        "contract": "contracts/taskModules/ProxyModule.sol:ProxyModule",
        "label": "execAddresses",
        "offset": 0,
        "slot": "1",
        "type": "t_mapping(t_bytes32,t_address)"
      },
      {
        "astId": 2042,
        "contract": "contracts/taskModules/ProxyModule.sol:ProxyModule",
        "label": "_createdTasks",
        "offset": 0,
        "slot": "2",
        "type": "t_mapping(t_address,t_struct(Bytes32Set)1115_storage)"
      },
      {
        "astId": 2044,
        "contract": "contracts/taskModules/ProxyModule.sol:ProxyModule",
        "label": "fee",
        "offset": 0,
        "slot": "3",
        "type": "t_uint256"
      },
      {
        "astId": 2046,
        "contract": "contracts/taskModules/ProxyModule.sol:ProxyModule",
        "label": "feeToken",
        "offset": 0,
        "slot": "4",
        "type": "t_address"
      },
      {
        "astId": 2052,
        "contract": "contracts/taskModules/ProxyModule.sol:ProxyModule",
        "label": "timedTask",
        "offset": 0,
        "slot": "5",
        "type": "t_mapping(t_bytes32,t_struct(Time)5134_storage)"
      },
      {
        "astId": 2058,
        "contract": "contracts/taskModules/ProxyModule.sol:ProxyModule",
        "label": "taskModuleAddresses",
        "offset": 0,
        "slot": "6",
        "type": "t_mapping(t_enum(Module)5119,t_address)"
      },
      {
        "astId": 2062,
        "contract": "contracts/taskModules/ProxyModule.sol:ProxyModule",
        "label": "nonce1Balance",
        "offset": 0,
        "slot": "7",
        "type": "t_mapping(t_bytes32,t_uint256)"
      }
    ],
    "types": {
      "t_address": {
        "encoding": "inplace",
        "label": "address",
        "numberOfBytes": "20"
      },
      "t_array(t_bytes32)dyn_storage": {
        "base": "t_bytes32",
        "encoding": "dynamic_array",
        "label": "bytes32[]",
        "numberOfBytes": "32"
      },
      "t_bytes32": {
        "encoding": "inplace",
        "label": "bytes32",
        "numberOfBytes": "32"
      },
      "t_enum(Module)5119": {
        "encoding": "inplace",
        "label": "enum LibDataTypes.Module",
        "numberOfBytes": "1"
      },
      "t_mapping(t_address,t_struct(Bytes32Set)1115_storage)": {
        "encoding": "mapping",
        "key": "t_address",
        "label": "mapping(address => struct EnumerableSet.Bytes32Set)",
        "numberOfBytes": "32",
        "value": "t_struct(Bytes32Set)1115_storage"
      },
      "t_mapping(t_bytes32,t_address)": {
        "encoding": "mapping",
        "key": "t_bytes32",
        "label": "mapping(bytes32 => address)",
        "numberOfBytes": "32",
        "value": "t_address"
      },
      "t_mapping(t_bytes32,t_struct(Time)5134_storage)": {
        "encoding": "mapping",
        "key": "t_bytes32",
        "label": "mapping(bytes32 => struct LibDataTypes.Time)",
        "numberOfBytes": "32",
        "value": "t_struct(Time)5134_storage"
      },
      "t_mapping(t_bytes32,t_uint256)": {
        "encoding": "mapping",
        "key": "t_bytes32",
        "label": "mapping(bytes32 => uint256)",
        "numberOfBytes": "32",
        "value": "t_uint256"
      },
      "t_mapping(t_enum(Module)5119,t_address)": {
        "encoding": "mapping",
        "key": "t_enum(Module)5119",
        "label": "mapping(enum LibDataTypes.Module => address)",
        "numberOfBytes": "32",
        "value": "t_address"
      },
      "t_struct(Bytes32Set)1115_storage": {
        "encoding": "inplace",
        "label": "struct EnumerableSet.Bytes32Set",
        "members": [
          {
            "astId": 1114,
            "contract": "contracts/taskModules/ProxyModule.sol:ProxyModule",
            "label": "_inner",
            "offset": 0,
            "slot": "0",
            "type": "t_struct(Set)921_storage"
          }
        ],
        "numberOfBytes": "64"
      },
      "t_struct(Set)921_storage": {
        "encoding": "inplace",
        "label": "struct EnumerableSet.Set",
        "members": [
          {
            "astId": 916,
            "contract": "contracts/taskModules/ProxyModule.sol:ProxyModule",
            "label": "_values",
            "offset": 0,
            "slot": "0",
            "type": "t_array(t_bytes32)dyn_storage"
          },
          {
            "astId": 920,
            "contract": "contracts/taskModules/ProxyModule.sol:ProxyModule",
            "label": "_positions",
            "offset": 0,
            "slot": "1",
            "type": "t_mapping(t_bytes32,t_uint256)"
          }
        ],
        "numberOfBytes": "64"
      },
      "t_struct(Time)5134_storage": {
        "encoding": "inplace",
        "label": "struct LibDataTypes.Time",
        "members": [
          {
            "astId": 5131,
            "contract": "contracts/taskModules/ProxyModule.sol:ProxyModule",
            "label": "nextExec",
            "offset": 0,
            "slot": "0",
            "type": "t_uint128"
          },
          {
            "astId": 5133,
            "contract": "contracts/taskModules/ProxyModule.sol:ProxyModule",
            "label": "interval",
            "offset": 16,
            "slot": "0",
            "type": "t_uint128"
          }
        ],
        "numberOfBytes": "32"
      },
      "t_uint128": {
        "encoding": "inplace",
        "label": "uint128",
        "numberOfBytes": "16"
      },
      "t_uint256": {
        "encoding": "inplace",
        "label": "uint256",
        "numberOfBytes": "32"
      }
    }
  }
}