{
  "address": "0xa513E6E4b8f2a923D98304ec87F64353C4D5C853",
  "abi": [
    {
      "anonymous": false,
      "inputs": [
        {
          "indexed": false,
          "internalType": "bytes32",
          "name": "taskId",
          "type": "bytes32"
        },
        {
          "indexed": false,
          "internalType": "address",
          "name": "taskCreator",
          "type": "address"
        }
      ],
      "name": "TaskCancelled",
      "type": "event"
    },
    {
      "inputs": [
        {
          "internalType": "bytes32",
          "name": "",
          "type": "bytes32"
        }
      ],
      "name": "execAddresses",
      "outputs": [
        {
          "internalType": "address",
          "name": "",
          "type": "address"
        }
      ],
      "stateMutability": "view",
      "type": "function"
    },
    {
      "inputs": [],
      "name": "fee",
      "outputs": [
        {
          "internalType": "uint256",
          "name": "",
          "type": "uint256"
        }
      ],
      "stateMutability": "view",
      "type": "function"
    },
    {
      "inputs": [],
      "name": "feeToken",
      "outputs": [
        {
          "internalType": "address",
          "name": "",
          "type": "address"
        }
      ],
      "stateMutability": "view",
      "type": "function"
    },
    {
      "inputs": [
        {
          "internalType": "bytes32",
          "name": "",
          "type": "bytes32"
        }
      ],
      "name": "nonce1Balance",
      "outputs": [
        {
          "internalType": "uint256",
          "name": "",
          "type": "uint256"
        }
      ],
      "stateMutability": "view",
      "type": "function"
    },
    {
      "inputs": [
        {
          "internalType": "bytes32",
          "name": "",
          "type": "bytes32"
        },
        {
          "internalType": "address",
          "name": "",
          "type": "address"
        },
        {
          "internalType": "address",
          "name": "",
          "type": "address"
        },
        {
          "internalType": "bytes",
          "name": "",
          "type": "bytes"
        },
        {
          "internalType": "bytes",
          "name": "",
          "type": "bytes"
        }
      ],
      "name": "onCreateTask",
      "outputs": [],
      "stateMutability": "nonpayable",
      "type": "function"
    },
    {
      "inputs": [
        {
          "internalType": "bytes32",
          "name": "_taskId",
          "type": "bytes32"
        },
        {
          "internalType": "address",
          "name": "_taskCreator",
          "type": "address"
        },
        {
          "internalType": "address",
          "name": "",
          "type": "address"
        },
        {
          "internalType": "bytes",
          "name": "",
          "type": "bytes"
        }
      ],
      "name": "postExecCall",
      "outputs": [],
      "stateMutability": "nonpayable",
      "type": "function"
    },
    {
      "inputs": [
        {
          "internalType": "bytes32",
          "name": "",
          "type": "bytes32"
        },
        {
          "internalType": "address",
          "name": "_taskCreator",
          "type": "address"
        }
      ],
      "name": "preCancelTask",
      "outputs": [
        {
          "internalType": "address",
          "name": "",
          "type": "address"
        }
      ],
      "stateMutability": "nonpayable",
      "type": "function"
    },
    {
      "inputs": [
        {
          "internalType": "address",
          "name": "_taskCreator",
          "type": "address"
        },
        {
          "internalType": "address",
          "name": "_execAddress",
          "type": "address"
        }
      ],
      "name": "preCreateTask",
      "outputs": [
        {
          "internalType": "address",
          "name": "",
          "type": "address"
        },
        {
          "internalType": "address",
          "name": "",
          "type": "address"
        }
      ],
      "stateMutability": "nonpayable",
      "type": "function"
    },
    {
      "inputs": [
        {
          "internalType": "bytes32",
          "name": "",
          "type": "bytes32"
        },
        {
          "internalType": "address",
          "name": "",
          "type": "address"
        },
        {
          "internalType": "address",
          "name": "_execAddress",
          "type": "address"
        },
        {
          "internalType": "bytes",
          "name": "_execData",
          "type": "bytes"
        }
      ],
      "name": "preExecCall",
      "outputs": [
        {
          "internalType": "address",
          "name": "",
          "type": "address"
        },
        {
          "internalType": "bytes",
          "name": "",
          "type": "bytes"
        }
      ],
      "stateMutability": "nonpayable",
      "type": "function"
    },
    {
      "inputs": [
        {
          "internalType": "bytes32",
          "name": "",
          "type": "bytes32"
        }
      ],
      "name": "taskCreator",
      "outputs": [
        {
          "internalType": "address",
          "name": "",
          "type": "address"
        }
      ],
      "stateMutability": "view",
      "type": "function"
    },
    {
      "inputs": [
        {
          "internalType": "enum LibDataTypes.Module",
          "name": "",
          "type": "uint8"
        }
      ],
      "name": "taskModuleAddresses",
      "outputs": [
        {
          "internalType": "address",
          "name": "",
          "type": "address"
        }
      ],
      "stateMutability": "view",
      "type": "function"
    },
    {
      "inputs": [
        {
          "internalType": "bytes32",
          "name": "",
          "type": "bytes32"
        }
      ],
      "name": "timedTask",
      "outputs": [
        {
          "internalType": "uint128",
          "name": "nextExec",
          "type": "uint128"
        },
        {
          "internalType": "uint128",
          "name": "interval",
          "type": "uint128"
        }
      ],
      "stateMutability": "view",
      "type": "function"
    }
  ],
  "transactionHash": "0x5fe42106e243e501315ac56a939c038bff2cb4273e116f3f9cd649ae7908b089",
  "args": [],
  "numDeployments": 1,
  "solcInputHash": "3e732f23068f6192d2fba984e5b4f4ff",
  "bytecode": "0x608060405234801561001057600080fd5b50610c38806100206000396000f3fe608060405234801561001057600080fd5b50600436106100b45760003560e01c8063b0ccbdf011610071578063b0ccbdf0146101c8578063b2db0b41146101e4578063b81cd86614610200578063c10304f714610231578063cd3d4fb914610262578063ddca3f4314610292576100b4565b806314ae9926146100b95780632e6e0bd0146100e9578063647846a5146101195780636d2dd29f1461013757806376474e6a14610167578063ac21631a14610198575b600080fd5b6100d360048036038101906100ce91906106c6565b6102b0565b6040516100e09190610715565b60405180910390f35b61010360048036038101906100fe9190610730565b6102bb565b6040516101109190610715565b60405180910390f35b6101216102ee565b60405161012e9190610715565b60405180910390f35b610151600480360381019061014c9190610730565b610314565b60405161015e9190610715565b60405180910390f35b610181600480360381019061017c919061075d565b610347565b60405161018f92919061079d565b60405180910390f35b6101b260048036038101906101ad9190610730565b610357565b6040516101bf91906107df565b60405180910390f35b6101e260048036038101906101dd919061085f565b61036f565b005b6101fe60048036038101906101f9919061091b565b610378565b005b61021a60048036038101906102159190610730565b61040a565b6040516102289291906109ce565b60405180910390f35b61024b6004803603810190610246919061091b565b610466565b604051610259929190610a87565b60405180910390f35b61027c60048036038101906102779190610adc565b6104c4565b6040516102899190610715565b60405180910390f35b61029a6104f7565b6040516102a791906107df565b60405180910390f35b600081905092915050565b60006020528060005260406000206000915054906101000a900473ffffffffffffffffffffffffffffffffffffffff1681565b600460009054906101000a900473ffffffffffffffffffffffffffffffffffffffff1681565b60016020528060005260406000206000915054906101000a900473ffffffffffffffffffffffffffffffffffffffff1681565b6000808383915091509250929050565b60076020528060005260406000206000915090505481565b50505050505050565b6103c985600260008773ffffffffffffffffffffffffffffffffffffffff1673ffffffffffffffffffffffffffffffffffffffff1681526020019081526020016000206104fd90919063ffffffff16565b507f44d83729a43f9c6046446df014d073dd242e0ad672071e9b292f31b669c25b0985856040516103fb929190610b18565b60405180910390a15050505050565b60056020528060005260406000206000915090508060000160009054906101000a90046fffffffffffffffffffffffffffffffff16908060000160109054906101000a90046fffffffffffffffffffffffffffffffff16905082565b6000606084848481818080601f016020809104026020016040519081016040528093929190818152602001838380828437600081840152601f19601f8201169050808301925050505050505090509050915091509550959350505050565b60066020528060005260406000206000915054906101000a900473ffffffffffffffffffffffffffffffffffffffff1681565b60035481565b600061050c8360000183610514565b905092915050565b6000808360010160008481526020019081526020016000205490506000811461061c5760006001826105469190610b70565b905060006001866000018054905061055e9190610b70565b90508082146105cd57600086600001828154811061057f5761057e610ba4565b5b90600052602060002001549050808760000184815481106105a3576105a2610ba4565b5b90600052602060002001819055508387600101600083815260200190815260200160002081905550505b856000018054806105e1576105e0610bd3565b5b600190038181906000526020600020016000905590558560010160008681526020019081526020016000206000905560019350505050610622565b60009150505b92915050565b600080fd5b600080fd5b6000819050919050565b61064581610632565b811461065057600080fd5b50565b6000813590506106628161063c565b92915050565b600073ffffffffffffffffffffffffffffffffffffffff82169050919050565b600061069382610668565b9050919050565b6106a381610688565b81146106ae57600080fd5b50565b6000813590506106c08161069a565b92915050565b600080604083850312156106dd576106dc610628565b5b60006106eb85828601610653565b92505060206106fc858286016106b1565b9150509250929050565b61070f81610688565b82525050565b600060208201905061072a6000830184610706565b92915050565b60006020828403121561074657610745610628565b5b600061075484828501610653565b91505092915050565b6000806040838503121561077457610773610628565b5b6000610782858286016106b1565b9250506020610793858286016106b1565b9150509250929050565b60006040820190506107b26000830185610706565b6107bf6020830184610706565b9392505050565b6000819050919050565b6107d9816107c6565b82525050565b60006020820190506107f460008301846107d0565b92915050565b600080fd5b600080fd5b600080fd5b60008083601f84011261081f5761081e6107fa565b5b8235905067ffffffffffffffff81111561083c5761083b6107ff565b5b60208301915083600182028301111561085857610857610804565b5b9250929050565b600080600080600080600060a0888a03121561087e5761087d610628565b5b600061088c8a828b01610653565b975050602061089d8a828b016106b1565b96505060406108ae8a828b016106b1565b955050606088013567ffffffffffffffff8111156108cf576108ce61062d565b5b6108db8a828b01610809565b9450945050608088013567ffffffffffffffff8111156108fe576108fd61062d565b5b61090a8a828b01610809565b925092505092959891949750929550565b60008060008060006080868803121561093757610936610628565b5b600061094588828901610653565b9550506020610956888289016106b1565b9450506040610967888289016106b1565b935050606086013567ffffffffffffffff8111156109885761098761062d565b5b61099488828901610809565b92509250509295509295909350565b60006fffffffffffffffffffffffffffffffff82169050919050565b6109c8816109a3565b82525050565b60006040820190506109e360008301856109bf565b6109f060208301846109bf565b9392505050565b600081519050919050565b600082825260208201905092915050565b60005b83811015610a31578082015181840152602081019050610a16565b60008484015250505050565b6000601f19601f8301169050919050565b6000610a59826109f7565b610a638185610a02565b9350610a73818560208601610a13565b610a7c81610a3d565b840191505092915050565b6000604082019050610a9c6000830185610706565b8181036020830152610aae8184610a4e565b90509392505050565b60068110610ac457600080fd5b50565b600081359050610ad681610ab7565b92915050565b600060208284031215610af257610af1610628565b5b6000610b0084828501610ac7565b91505092915050565b610b1281610632565b82525050565b6000604082019050610b2d6000830185610b09565b610b3a6020830184610706565b9392505050565b7f4e487b7100000000000000000000000000000000000000000000000000000000600052601160045260246000fd5b6000610b7b826107c6565b9150610b86836107c6565b9250828203905081811115610b9e57610b9d610b41565b5b92915050565b7f4e487b7100000000000000000000000000000000000000000000000000000000600052603260045260246000fd5b7f4e487b7100000000000000000000000000000000000000000000000000000000600052603160045260246000fdfea26469706673582212209763915822b48ba7359f32efa3b10e19fce7f478c72d0c2e2041e728ebb51b7464736f6c63430008140033",
  "devdoc": {
    "events": {
      "TaskCancelled(bytes32,address)": {
        "params": {
          "taskCreator": "The address which owned the task.",
          "taskId": "Unique hash of the task. {See LibTaskId-getTaskId}"
        }
      }
    },
    "kind": "dev",
    "methods": {
      "onCreateTask(bytes32,address,address,bytes,bytes)": {
        "params": {
          "execAddress": "Address of contract that should be called.",
          "execData": "Execution data to be called with / function selector if execution data is yet to be determined.",
          "initModuleArg": "Encoded arguments for module if any.",
          "taskCreator": "The address which created the task.",
          "taskId": "Unique hash of the task created."
        }
      },
      "postExecCall(bytes32,address,address,bytes)": {
        "params": {
          "execAddress": "Address of contract that should be called.",
          "execData": "Execution data to be called with / function selector if execution data is yet to be determined.",
          "taskCreator": "The address which created the task.",
          "taskId": "Unique hash of the task created."
        }
      },
      "preCancelTask(bytes32,address)": {
        "details": "Modules can override taskCreator.",
        "params": {
          "taskCreator": "The address which created the task.",
          "taskId": "Unique hash of the task created."
        },
        "returns": {
          "_0": "address Overriden or original taskCreator."
        }
      },
      "preCreateTask(address,address)": {
        "details": "Modules can override execAddress or taskCreator. {See ProxyModule-preCreateTask}",
        "params": {
          "execAddress": "Address of contract that should be called.",
          "taskCreator": "The address which created the task."
        },
        "returns": {
          "_0": "address Overriden or original taskCreator.",
          "_1": "address Overriden or original execAddress."
        }
      },
      "preExecCall(bytes32,address,address,bytes)": {
        "params": {
          "execAddress": "Address of contract that should be called.",
          "execData": "Execution data to be called with / function selector if execution data is yet to be determined.",
          "taskCreator": "The address which created the task.",
          "taskId": "Unique hash of the task created."
        },
        "returns": {
          "_0": "address Overriden or original execution address.",
          "_1": "bytes Overriden or original execution data."
        }
      }
    },
    "version": 1
  },
  "userdoc": {
    "events": {
      "TaskCancelled(bytes32,address)": {
        "notice": "Emitted when `cancelTask` is called."
      }
    },
    "kind": "user",
    "methods": {
      "onCreateTask(bytes32,address,address,bytes,bytes)": {
        "notice": "Initiates task module whenever `createTask` is being called."
      },
      "postExecCall(bytes32,address,address,bytes)": {
        "notice": "Called during `exec` and after execAddress is called."
      },
      "preCancelTask(bytes32,address)": {
        "notice": "Called before taskId is removed from _createdTasks[]."
      },
      "preCreateTask(address,address)": {
        "notice": "Called before generating taskId."
      },
      "preExecCall(bytes32,address,address,bytes)": {
        "notice": "Called during `exec` and before execAddress is called."
      }
    },
    "version": 1
  },
  "storageLayout": {
    "storage": [
      {
        "astId": 2031,
        "contract": "contracts/taskModules/SingleExecModule.sol:SingleExecModule",
        "label": "taskCreator",
        "offset": 0,
        "slot": "0",
        "type": "t_mapping(t_bytes32,t_address)"
      },
      {
        "astId": 2036,
        "contract": "contracts/taskModules/SingleExecModule.sol:SingleExecModule",
        "label": "execAddresses",
        "offset": 0,
        "slot": "1",
        "type": "t_mapping(t_bytes32,t_address)"
      },
      {
        "astId": 2042,
        "contract": "contracts/taskModules/SingleExecModule.sol:SingleExecModule",
        "label": "_createdTasks",
        "offset": 0,
        "slot": "2",
        "type": "t_mapping(t_address,t_struct(Bytes32Set)1115_storage)"
      },
      {
        "astId": 2044,
        "contract": "contracts/taskModules/SingleExecModule.sol:SingleExecModule",
        "label": "fee",
        "offset": 0,
        "slot": "3",
        "type": "t_uint256"
      },
      {
        "astId": 2046,
        "contract": "contracts/taskModules/SingleExecModule.sol:SingleExecModule",
        "label": "feeToken",
        "offset": 0,
        "slot": "4",
        "type": "t_address"
      },
      {
        "astId": 2052,
        "contract": "contracts/taskModules/SingleExecModule.sol:SingleExecModule",
        "label": "timedTask",
        "offset": 0,
        "slot": "5",
        "type": "t_mapping(t_bytes32,t_struct(Time)5134_storage)"
      },
      {
        "astId": 2058,
        "contract": "contracts/taskModules/SingleExecModule.sol:SingleExecModule",
        "label": "taskModuleAddresses",
        "offset": 0,
        "slot": "6",
        "type": "t_mapping(t_enum(Module)5119,t_address)"
      },
      {
        "astId": 2062,
        "contract": "contracts/taskModules/SingleExecModule.sol:SingleExecModule",
        "label": "nonce1Balance",
        "offset": 0,
        "slot": "7",
        "type": "t_mapping(t_bytes32,t_uint256)"
      }
    ],
    "types": {
      "t_address": {
        "encoding": "inplace",
        "label": "address",
        "numberOfBytes": "20"
      },
      "t_array(t_bytes32)dyn_storage": {
        "base": "t_bytes32",
        "encoding": "dynamic_array",
        "label": "bytes32[]",
        "numberOfBytes": "32"
      },
      "t_bytes32": {
        "encoding": "inplace",
        "label": "bytes32",
        "numberOfBytes": "32"
      },
      "t_enum(Module)5119": {
        "encoding": "inplace",
        "label": "enum LibDataTypes.Module",
        "numberOfBytes": "1"
      },
      "t_mapping(t_address,t_struct(Bytes32Set)1115_storage)": {
        "encoding": "mapping",
        "key": "t_address",
        "label": "mapping(address => struct EnumerableSet.Bytes32Set)",
        "numberOfBytes": "32",
        "value": "t_struct(Bytes32Set)1115_storage"
      },
      "t_mapping(t_bytes32,t_address)": {
        "encoding": "mapping",
        "key": "t_bytes32",
        "label": "mapping(bytes32 => address)",
        "numberOfBytes": "32",
        "value": "t_address"
      },
      "t_mapping(t_bytes32,t_struct(Time)5134_storage)": {
        "encoding": "mapping",
        "key": "t_bytes32",
        "label": "mapping(bytes32 => struct LibDataTypes.Time)",
        "numberOfBytes": "32",
        "value": "t_struct(Time)5134_storage"
      },
      "t_mapping(t_bytes32,t_uint256)": {
        "encoding": "mapping",
        "key": "t_bytes32",
        "label": "mapping(bytes32 => uint256)",
        "numberOfBytes": "32",
        "value": "t_uint256"
      },
      "t_mapping(t_enum(Module)5119,t_address)": {
        "encoding": "mapping",
        "key": "t_enum(Module)5119",
        "label": "mapping(enum LibDataTypes.Module => address)",
        "numberOfBytes": "32",
        "value": "t_address"
      },
      "t_struct(Bytes32Set)1115_storage": {
        "encoding": "inplace",
        "label": "struct EnumerableSet.Bytes32Set",
        "members": [
          {
            "astId": 1114,
            "contract": "contracts/taskModules/SingleExecModule.sol:SingleExecModule",
            "label": "_inner",
            "offset": 0,
            "slot": "0",
            "type": "t_struct(Set)921_storage"
          }
        ],
        "numberOfBytes": "64"
      },
      "t_struct(Set)921_storage": {
        "encoding": "inplace",
        "label": "struct EnumerableSet.Set",
        "members": [
          {
            "astId": 916,
            "contract": "contracts/taskModules/SingleExecModule.sol:SingleExecModule",
            "label": "_values",
            "offset": 0,
            "slot": "0",
            "type": "t_array(t_bytes32)dyn_storage"
          },
          {
            "astId": 920,
            "contract": "contracts/taskModules/SingleExecModule.sol:SingleExecModule",
            "label": "_positions",
            "offset": 0,
            "slot": "1",
            "type": "t_mapping(t_bytes32,t_uint256)"
          }
        ],
        "numberOfBytes": "64"
      },
      "t_struct(Time)5134_storage": {
        "encoding": "inplace",
        "label": "struct LibDataTypes.Time",
        "members": [
          {
            "astId": 5131,
            "contract": "contracts/taskModules/SingleExecModule.sol:SingleExecModule",
            "label": "nextExec",
            "offset": 0,
            "slot": "0",
            "type": "t_uint128"
          },
          {
            "astId": 5133,
            "contract": "contracts/taskModules/SingleExecModule.sol:SingleExecModule",
            "label": "interval",
            "offset": 16,
            "slot": "0",
            "type": "t_uint128"
          }
        ],
        "numberOfBytes": "32"
      },
      "t_uint128": {
        "encoding": "inplace",
        "label": "uint128",
        "numberOfBytes": "16"
      },
      "t_uint256": {
        "encoding": "inplace",
        "label": "uint256",
        "numberOfBytes": "32"
      }
    }
  }
}