{
  "address": "0x840748F7Fd3EA956E5f4c88001da5CC1ABCBc038",
  "abi": [
    {
      "inputs": [
        {
          "internalType": "string",
          "name": "_web3FunctionHash",
          "type": "string"
        },
        {
          "internalType": "bytes",
          "name": "_web3FunctionArgsHex",
          "type": "bytes"
        }
      ],
      "name": "encodeModuleArg",
      "outputs": [
        {
          "internalType": "bytes",
          "name": "",
          "type": "bytes"
        }
      ],
      "stateMutability": "pure",
      "type": "function"
    },
    {
      "inputs": [
        {
          "internalType": "bytes32",
          "name": "",
          "type": "bytes32"
        }
      ],
      "name": "execAddresses",
      "outputs": [
        {
          "internalType": "address",
          "name": "",
          "type": "address"
        }
      ],
      "stateMutability": "view",
      "type": "function"
    },
    {
      "inputs": [],
      "name": "fee",
      "outputs": [
        {
          "internalType": "uint256",
          "name": "",
          "type": "uint256"
        }
      ],
      "stateMutability": "view",
      "type": "function"
    },
    {
      "inputs": [],
      "name": "feeToken",
      "outputs": [
        {
          "internalType": "address",
          "name": "",
          "type": "address"
        }
      ],
      "stateMutability": "view",
      "type": "function"
    },
    {
      "inputs": [
        {
          "internalType": "bytes32",
          "name": "",
          "type": "bytes32"
        }
      ],
      "name": "nonce1Balance",
      "outputs": [
        {
          "internalType": "uint256",
          "name": "",
          "type": "uint256"
        }
      ],
      "stateMutability": "view",
      "type": "function"
    },
    {
      "inputs": [
        {
          "internalType": "bytes32",
          "name": "",
          "type": "bytes32"
        },
        {
          "internalType": "address",
          "name": "",
          "type": "address"
        },
        {
          "internalType": "address",
          "name": "",
          "type": "address"
        },
        {
          "internalType": "bytes",
          "name": "",
          "type": "bytes"
        },
        {
          "internalType": "bytes",
          "name": "",
          "type": "bytes"
        }
      ],
      "name": "onCreateTask",
      "outputs": [],
      "stateMutability": "nonpayable",
      "type": "function"
    },
    {
      "inputs": [
        {
          "internalType": "bytes32",
          "name": "taskId",
          "type": "bytes32"
        },
        {
          "internalType": "address",
          "name": "taskCreator",
          "type": "address"
        },
        {
          "internalType": "address",
          "name": "execAddress",
          "type": "address"
        },
        {
          "internalType": "bytes",
          "name": "execData",
          "type": "bytes"
        }
      ],
      "name": "postExecCall",
      "outputs": [],
      "stateMutability": "nonpayable",
      "type": "function"
    },
    {
      "inputs": [
        {
          "internalType": "bytes32",
          "name": "",
          "type": "bytes32"
        },
        {
          "internalType": "address",
          "name": "_taskCreator",
          "type": "address"
        }
      ],
      "name": "preCancelTask",
      "outputs": [
        {
          "internalType": "address",
          "name": "",
          "type": "address"
        }
      ],
      "stateMutability": "nonpayable",
      "type": "function"
    },
    {
      "inputs": [
        {
          "internalType": "address",
          "name": "_taskCreator",
          "type": "address"
        },
        {
          "internalType": "address",
          "name": "_execAddress",
          "type": "address"
        }
      ],
      "name": "preCreateTask",
      "outputs": [
        {
          "internalType": "address",
          "name": "",
          "type": "address"
        },
        {
          "internalType": "address",
          "name": "",
          "type": "address"
        }
      ],
      "stateMutability": "nonpayable",
      "type": "function"
    },
    {
      "inputs": [
        {
          "internalType": "bytes32",
          "name": "",
          "type": "bytes32"
        },
        {
          "internalType": "address",
          "name": "",
          "type": "address"
        },
        {
          "internalType": "address",
          "name": "_execAddress",
          "type": "address"
        },
        {
          "internalType": "bytes",
          "name": "_execData",
          "type": "bytes"
        }
      ],
      "name": "preExecCall",
      "outputs": [
        {
          "internalType": "address",
          "name": "",
          "type": "address"
        },
        {
          "internalType": "bytes",
          "name": "",
          "type": "bytes"
        }
      ],
      "stateMutability": "nonpayable",
      "type": "function"
    },
    {
      "inputs": [
        {
          "internalType": "bytes32",
          "name": "",
          "type": "bytes32"
        }
      ],
      "name": "taskCreator",
      "outputs": [
        {
          "internalType": "address",
          "name": "",
          "type": "address"
        }
      ],
      "stateMutability": "view",
      "type": "function"
    },
    {
      "inputs": [
        {
          "internalType": "enum LibDataTypes.Module",
          "name": "",
          "type": "uint8"
        }
      ],
      "name": "taskModuleAddresses",
      "outputs": [
        {
          "internalType": "address",
          "name": "",
          "type": "address"
        }
      ],
      "stateMutability": "view",
      "type": "function"
    },
    {
      "inputs": [
        {
          "internalType": "bytes32",
          "name": "",
          "type": "bytes32"
        }
      ],
      "name": "timedTask",
      "outputs": [
        {
          "internalType": "uint128",
          "name": "nextExec",
          "type": "uint128"
        },
        {
          "internalType": "uint128",
          "name": "interval",
          "type": "uint128"
        }
      ],
      "stateMutability": "view",
      "type": "function"
    }
  ],
  "transactionHash": "0x608537c0afc18b46f5652b0e6d14822245333bd6e84b792bea4a9adb38aa95ff",
  "args": [],
  "numDeployments": 1,
  "solcInputHash": "3e732f23068f6192d2fba984e5b4f4ff",
  "bytecode": "0x608060405234801561001057600080fd5b50610c96806100206000396000f3fe608060405234801561001057600080fd5b50600436106100cf5760003560e01c8063ac21631a1161008c578063b81cd86611610066578063b81cd8661461024b578063c10304f71461027c578063cd3d4fb9146102ad578063ddca3f43146102dd576100cf565b8063ac21631a146101e3578063b0ccbdf014610213578063b2db0b411461022f576100cf565b806314ae9926146100d45780632e6e0bd014610104578063647846a5146101345780636a796a8a146101525780636d2dd29f1461018257806376474e6a146101b2575b600080fd5b6100ee60048036038101906100e99190610594565b6102fb565b6040516100fb91906105e3565b60405180910390f35b61011e600480360381019061011991906105fe565b610306565b60405161012b91906105e3565b60405180910390f35b61013c610339565b60405161014991906105e3565b60405180910390f35b61016c600480360381019061016791906107d1565b61035f565b60405161017991906108cc565b60405180910390f35b61019c600480360381019061019791906105fe565b61038e565b6040516101a991906105e3565b60405180910390f35b6101cc60048036038101906101c791906108ee565b6103c1565b6040516101da92919061092e565b60405180910390f35b6101fd60048036038101906101f891906105fe565b6103d1565b60405161020a9190610970565b60405180910390f35b61022d6004803603810190610228919061098b565b6103e9565b005b61024960048036038101906102449190610a47565b6103f2565b005b610265600480360381019061026091906105fe565b6103f9565b604051610273929190610afa565b60405180910390f35b61029660048036038101906102919190610a47565b610455565b6040516102a4929190610b23565b60405180910390f35b6102c760048036038101906102c29190610b78565b6104b3565b6040516102d491906105e3565b60405180910390f35b6102e56104e6565b6040516102f29190610970565b60405180910390f35b600081905092915050565b60006020528060005260406000206000915054906101000a900473ffffffffffffffffffffffffffffffffffffffff1681565b600460009054906101000a900473ffffffffffffffffffffffffffffffffffffffff1681565b606083838360405160200161037693929190610c27565b60405160208183030381529060405290509392505050565b60016020528060005260406000206000915054906101000a900473ffffffffffffffffffffffffffffffffffffffff1681565b6000808383915091509250929050565b60076020528060005260406000206000915090505481565b50505050505050565b5050505050565b60056020528060005260406000206000915090508060000160009054906101000a90046fffffffffffffffffffffffffffffffff16908060000160109054906101000a90046fffffffffffffffffffffffffffffffff16905082565b6000606084848481818080601f016020809104026020016040519081016040528093929190818152602001838380828437600081840152601f19601f8201169050808301925050505050505090509050915091509550959350505050565b60066020528060005260406000206000915054906101000a900473ffffffffffffffffffffffffffffffffffffffff1681565b60035481565b6000604051905090565b600080fd5b600080fd5b6000819050919050565b61051381610500565b811461051e57600080fd5b50565b6000813590506105308161050a565b92915050565b600073ffffffffffffffffffffffffffffffffffffffff82169050919050565b600061056182610536565b9050919050565b61057181610556565b811461057c57600080fd5b50565b60008135905061058e81610568565b92915050565b600080604083850312156105ab576105aa6104f6565b5b60006105b985828601610521565b92505060206105ca8582860161057f565b9150509250929050565b6105dd81610556565b82525050565b60006020820190506105f860008301846105d4565b92915050565b600060208284031215610614576106136104f6565b5b600061062284828501610521565b91505092915050565b600080fd5b600080fd5b6000601f19601f8301169050919050565b7f4e487b7100000000000000000000000000000000000000000000000000000000600052604160045260246000fd5b61067e82610635565b810181811067ffffffffffffffff8211171561069d5761069c610646565b5b80604052505050565b60006106b06104ec565b90506106bc8282610675565b919050565b600067ffffffffffffffff8211156106dc576106db610646565b5b6106e582610635565b9050602081019050919050565b82818337600083830152505050565b600061071461070f846106c1565b6106a6565b9050828152602081018484840111156107305761072f610630565b5b61073b8482856106f2565b509392505050565b600082601f8301126107585761075761062b565b5b8135610768848260208601610701565b91505092915050565b600080fd5b600080fd5b60008083601f8401126107915761079061062b565b5b8235905067ffffffffffffffff8111156107ae576107ad610771565b5b6020830191508360018202830111156107ca576107c9610776565b5b9250929050565b6000806000604084860312156107ea576107e96104f6565b5b600084013567ffffffffffffffff811115610808576108076104fb565b5b61081486828701610743565b935050602084013567ffffffffffffffff811115610835576108346104fb565b5b6108418682870161077b565b92509250509250925092565b600081519050919050565b600082825260208201905092915050565b60005b8381101561088757808201518184015260208101905061086c565b60008484015250505050565b600061089e8261084d565b6108a88185610858565b93506108b8818560208601610869565b6108c181610635565b840191505092915050565b600060208201905081810360008301526108e68184610893565b905092915050565b60008060408385031215610905576109046104f6565b5b60006109138582860161057f565b92505060206109248582860161057f565b9150509250929050565b600060408201905061094360008301856105d4565b61095060208301846105d4565b9392505050565b6000819050919050565b61096a81610957565b82525050565b60006020820190506109856000830184610961565b92915050565b600080600080600080600060a0888a0312156109aa576109a96104f6565b5b60006109b88a828b01610521565b97505060206109c98a828b0161057f565b96505060406109da8a828b0161057f565b955050606088013567ffffffffffffffff8111156109fb576109fa6104fb565b5b610a078a828b0161077b565b9450945050608088013567ffffffffffffffff811115610a2a57610a296104fb565b5b610a368a828b0161077b565b925092505092959891949750929550565b600080600080600060808688031215610a6357610a626104f6565b5b6000610a7188828901610521565b9550506020610a828882890161057f565b9450506040610a938882890161057f565b935050606086013567ffffffffffffffff811115610ab457610ab36104fb565b5b610ac08882890161077b565b92509250509295509295909350565b60006fffffffffffffffffffffffffffffffff82169050919050565b610af481610acf565b82525050565b6000604082019050610b0f6000830185610aeb565b610b1c6020830184610aeb565b9392505050565b6000604082019050610b3860008301856105d4565b8181036020830152610b4a8184610893565b90509392505050565b60068110610b6057600080fd5b50565b600081359050610b7281610b53565b92915050565b600060208284031215610b8e57610b8d6104f6565b5b6000610b9c84828501610b63565b91505092915050565b600081519050919050565b600082825260208201905092915050565b6000610bcc82610ba5565b610bd68185610bb0565b9350610be6818560208601610869565b610bef81610635565b840191505092915050565b6000610c068385610858565b9350610c138385846106f2565b610c1c83610635565b840190509392505050565b60006040820190508181036000830152610c418186610bc1565b90508181036020830152610c56818486610bfa565b905094935050505056fea26469706673582212200618841541849efc07bbafbd11d93fc7dfcf0d6558037d4483bc8a461a90e86664736f6c63430008140033",
  "devdoc": {
    "kind": "dev",
    "methods": {
      "encodeModuleArg(string,bytes)": {
        "params": {
          "_web3FunctionArgsHex": "Arguments to be passed into web3 function in hex.",
          "_web3FunctionHash": "IPFS hash of web3 function."
        }
      },
      "onCreateTask(bytes32,address,address,bytes,bytes)": {
        "params": {
          "execAddress": "Address of contract that should be called.",
          "execData": "Execution data to be called with / function selector if execution data is yet to be determined.",
          "initModuleArg": "Encoded arguments for module if any.",
          "taskCreator": "The address which created the task.",
          "taskId": "Unique hash of the task created."
        }
      },
      "postExecCall(bytes32,address,address,bytes)": {
        "params": {
          "execAddress": "Address of contract that should be called.",
          "execData": "Execution data to be called with / function selector if execution data is yet to be determined.",
          "taskCreator": "The address which created the task.",
          "taskId": "Unique hash of the task created."
        }
      },
      "preCancelTask(bytes32,address)": {
        "details": "Modules can override taskCreator.",
        "params": {
          "taskCreator": "The address which created the task.",
          "taskId": "Unique hash of the task created."
        },
        "returns": {
          "_0": "address Overriden or original taskCreator."
        }
      },
      "preCreateTask(address,address)": {
        "details": "Modules can override execAddress or taskCreator. {See ProxyModule-preCreateTask}",
        "params": {
          "execAddress": "Address of contract that should be called.",
          "taskCreator": "The address which created the task."
        },
        "returns": {
          "_0": "address Overriden or original taskCreator.",
          "_1": "address Overriden or original execAddress."
        }
      },
      "preExecCall(bytes32,address,address,bytes)": {
        "params": {
          "execAddress": "Address of contract that should be called.",
          "execData": "Execution data to be called with / function selector if execution data is yet to be determined.",
          "taskCreator": "The address which created the task.",
          "taskId": "Unique hash of the task created."
        },
        "returns": {
          "_0": "address Overriden or original execution address.",
          "_1": "bytes Overriden or original execution data."
        }
      }
    },
    "version": 1
  },
  "userdoc": {
    "kind": "user",
    "methods": {
      "encodeModuleArg(string,bytes)": {
        "notice": "Helper function to encode arguments for Web3FunctionModule."
      },
      "onCreateTask(bytes32,address,address,bytes,bytes)": {
        "notice": "Initiates task module whenever `createTask` is being called."
      },
      "postExecCall(bytes32,address,address,bytes)": {
        "notice": "Called during `exec` and after execAddress is called."
      },
      "preCancelTask(bytes32,address)": {
        "notice": "Called before taskId is removed from _createdTasks[]."
      },
      "preCreateTask(address,address)": {
        "notice": "Called before generating taskId."
      },
      "preExecCall(bytes32,address,address,bytes)": {
        "notice": "Called during `exec` and before execAddress is called."
      }
    },
    "version": 1
  },
  "storageLayout": {
    "storage": [
      {
        "astId": 2031,
        "contract": "contracts/taskModules/Web3FunctionModule.sol:Web3FunctionModule",
        "label": "taskCreator",
        "offset": 0,
        "slot": "0",
        "type": "t_mapping(t_bytes32,t_address)"
      },
      {
        "astId": 2036,
        "contract": "contracts/taskModules/Web3FunctionModule.sol:Web3FunctionModule",
        "label": "execAddresses",
        "offset": 0,
        "slot": "1",
        "type": "t_mapping(t_bytes32,t_address)"
      },
      {
        "astId": 2042,
        "contract": "contracts/taskModules/Web3FunctionModule.sol:Web3FunctionModule",
        "label": "_createdTasks",
        "offset": 0,
        "slot": "2",
        "type": "t_mapping(t_address,t_struct(Bytes32Set)1115_storage)"
      },
      {
        "astId": 2044,
        "contract": "contracts/taskModules/Web3FunctionModule.sol:Web3FunctionModule",
        "label": "fee",
        "offset": 0,
        "slot": "3",
        "type": "t_uint256"
      },
      {
        "astId": 2046,
        "contract": "contracts/taskModules/Web3FunctionModule.sol:Web3FunctionModule",
        "label": "feeToken",
        "offset": 0,
        "slot": "4",
        "type": "t_address"
      },
      {
        "astId": 2052,
        "contract": "contracts/taskModules/Web3FunctionModule.sol:Web3FunctionModule",
        "label": "timedTask",
        "offset": 0,
        "slot": "5",
        "type": "t_mapping(t_bytes32,t_struct(Time)5134_storage)"
      },
      {
        "astId": 2058,
        "contract": "contracts/taskModules/Web3FunctionModule.sol:Web3FunctionModule",
        "label": "taskModuleAddresses",
        "offset": 0,
        "slot": "6",
        "type": "t_mapping(t_enum(Module)5119,t_address)"
      },
      {
        "astId": 2062,
        "contract": "contracts/taskModules/Web3FunctionModule.sol:Web3FunctionModule",
        "label": "nonce1Balance",
        "offset": 0,
        "slot": "7",
        "type": "t_mapping(t_bytes32,t_uint256)"
      }
    ],
    "types": {
      "t_address": {
        "encoding": "inplace",
        "label": "address",
        "numberOfBytes": "20"
      },
      "t_array(t_bytes32)dyn_storage": {
        "base": "t_bytes32",
        "encoding": "dynamic_array",
        "label": "bytes32[]",
        "numberOfBytes": "32"
      },
      "t_bytes32": {
        "encoding": "inplace",
        "label": "bytes32",
        "numberOfBytes": "32"
      },
      "t_enum(Module)5119": {
        "encoding": "inplace",
        "label": "enum LibDataTypes.Module",
        "numberOfBytes": "1"
      },
      "t_mapping(t_address,t_struct(Bytes32Set)1115_storage)": {
        "encoding": "mapping",
        "key": "t_address",
        "label": "mapping(address => struct EnumerableSet.Bytes32Set)",
        "numberOfBytes": "32",
        "value": "t_struct(Bytes32Set)1115_storage"
      },
      "t_mapping(t_bytes32,t_address)": {
        "encoding": "mapping",
        "key": "t_bytes32",
        "label": "mapping(bytes32 => address)",
        "numberOfBytes": "32",
        "value": "t_address"
      },
      "t_mapping(t_bytes32,t_struct(Time)5134_storage)": {
        "encoding": "mapping",
        "key": "t_bytes32",
        "label": "mapping(bytes32 => struct LibDataTypes.Time)",
        "numberOfBytes": "32",
        "value": "t_struct(Time)5134_storage"
      },
      "t_mapping(t_bytes32,t_uint256)": {
        "encoding": "mapping",
        "key": "t_bytes32",
        "label": "mapping(bytes32 => uint256)",
        "numberOfBytes": "32",
        "value": "t_uint256"
      },
      "t_mapping(t_enum(Module)5119,t_address)": {
        "encoding": "mapping",
        "key": "t_enum(Module)5119",
        "label": "mapping(enum LibDataTypes.Module => address)",
        "numberOfBytes": "32",
        "value": "t_address"
      },
      "t_struct(Bytes32Set)1115_storage": {
        "encoding": "inplace",
        "label": "struct EnumerableSet.Bytes32Set",
        "members": [
          {
            "astId": 1114,
            "contract": "contracts/taskModules/Web3FunctionModule.sol:Web3FunctionModule",
            "label": "_inner",
            "offset": 0,
            "slot": "0",
            "type": "t_struct(Set)921_storage"
          }
        ],
        "numberOfBytes": "64"
      },
      "t_struct(Set)921_storage": {
        "encoding": "inplace",
        "label": "struct EnumerableSet.Set",
        "members": [
          {
            "astId": 916,
            "contract": "contracts/taskModules/Web3FunctionModule.sol:Web3FunctionModule",
            "label": "_values",
            "offset": 0,
            "slot": "0",
            "type": "t_array(t_bytes32)dyn_storage"
          },
          {
            "astId": 920,
            "contract": "contracts/taskModules/Web3FunctionModule.sol:Web3FunctionModule",
            "label": "_positions",
            "offset": 0,
            "slot": "1",
            "type": "t_mapping(t_bytes32,t_uint256)"
          }
        ],
        "numberOfBytes": "64"
      },
      "t_struct(Time)5134_storage": {
        "encoding": "inplace",
        "label": "struct LibDataTypes.Time",
        "members": [
          {
            "astId": 5131,
            "contract": "contracts/taskModules/Web3FunctionModule.sol:Web3FunctionModule",
            "label": "nextExec",
            "offset": 0,
            "slot": "0",
            "type": "t_uint128"
          },
          {
            "astId": 5133,
            "contract": "contracts/taskModules/Web3FunctionModule.sol:Web3FunctionModule",
            "label": "interval",
            "offset": 16,
            "slot": "0",
            "type": "t_uint128"
          }
        ],
        "numberOfBytes": "32"
      },
      "t_uint128": {
        "encoding": "inplace",
        "label": "uint128",
        "numberOfBytes": "16"
      },
      "t_uint256": {
        "encoding": "inplace",
        "label": "uint256",
        "numberOfBytes": "32"
      }
    }
  }
}